:020000040800F2
:10000000906E0020DD020008E92C0008E52A0008B7
:10001000212C0008611E0008F942000800000000C1
:100020000000000000000000000000004502000881
:10003000312400080000000089020008FB3100089C
:10004000F7020008F7020008F7020008F7020008AC
:10005000F7020008F7020008F7020008352500083B
:1000600089250008DD250008F7020008651E000844
:10007000F7020008F7020008F7020008F70200087C
:10008000F7020008F7020008F7020008F70200086C
:10009000F7020008F7020008F7020008112600081E
:1000A000F7020008F7020008F7020008AD34000864
:1000B000F7020008F7020008F7020008F70200083C
:1000C000F7020008F7020008F7020008F70200082C
:1000D000F702000825400008F7020008F7020008B0
:1000E000B1240008F7020008F7020008F702000830
:1000F000F7020008F702000805390008F7020008B7
:10010000F7020008F7020008F7020008F7020008EB
:10011000F7020008F7020008D9380008F7020008C3
:10012000F7020008F7020008F7020008F7020008CB
:1001300000F002F800F076F80AA090E8000C824483
:100140008344AAF10107DA4501D100F06BF8AFF260
:10015000090EBAE80F0013F0010F18BFFB1A43F0A5
:100160000103184790D60000B0D600000A444FF0B3
:10017000000C10F8013B13F0070408BF10F8014B06
:100180001D1108BF10F8015B641E05D010F8016B4B
:10019000641E01F8016BF9D113F0080F1EBF10F8AF
:1001A000014BAD1C0C1B09D16D1E58BF01F801CBD2
:1001B000FAD505E014F8016B01F8016B6D1EF9D555
:1001C0009142D6D37047000000230024002500266A
:1001D000103A28BF78C1FBD8520728BF30C148BFAA
:1001E0000B60704766290DF00C80642900F0F480E4
:1001F000752900F0F180782900F02A81632900F048
:100200001985732900F01E85002070471FB500F086
:1002100083FD0400002000210BF038FFE0601FBDCB
:1002200010B510BD00F07CFE1146FFF7EFFF04F0A3
:10023000BFFD00F09AFE03B4FFF7F2FF03BC04F029
:10024000DAF80000224B19680868B0E8F00F80F374
:100250000988BFF36F8F4FF0000080F311884EF0D4
:100260000D0E70470000000006480068006880F32B
:10027000088862B661B6BFF34F8FBFF36F8F00DFA0
:1002800000BF00BF08ED00E0EFF30980BFF36F8F00
:100290000F4B1A6820E9F00F106008B54FF05000BE
:1002A00080F31188BFF34F8FBFF36F8F0AF00EFCFE
:1002B0004FF0000080F31188BDE808401968086815
:1002C000B0E8F00F80F30988BFF36F8F704700BF6D
:1002D000E8000020EFF305807047000009488047E0
:1002E00009480047FEE7FEE7FEE7FEE7FEE7FEE718
:1002F000FEE7FEE7FEE7FEE704480549054A064B30
:10030000704700000D32000831010008906800209D
:10031000906E0020906A0020906A002070470000D4
:100320000FB4044910B503AA029800F08FFC10BC6A
:100330005DF814FB1800002070B50446856900685C
:10034000C10601D5302600E02026C00707D070BDC9
:10035000D4E9012130469047206A401C20626D1E7E
:10036000F6D570BD70B5044685690078C00707D121
:1003700070BDD4E9012120209047206A401C2062F2
:100380006D1EF6D570BD70B50C460546012A05D028
:100390002878800600D5EA69002302E0012305E001
:1003A0005B1C934202D2E05C0028F9D1A869E618F0
:1003B000C01AA861286A184428622846FFF7BCFFC3
:1003C00004E0D5E9012114F8010B9047B442F8D3B9
:1003D0002846FFF7C7FF70BD2DE9F041064600240F
:1003E00010687529314616A510D0AFF3008000289B
:1003F00002DA404213A507E031688A0701D512A549
:1004000002E0490704D511A5012401E0AFF3008003
:1004100000210A2206F1240709E0B0FBF2FCB0FB40
:10042000F2F302FB1C00303078541846491C0028B7
:10043000F3D123462A463046BDE8F04100F070B9BA
:10044000000000002D0000002B0000002000000034
:1004500070B504460D4621461068AFF30080218830
:10046000090502D50F4A7A4402E00E4A7A440E3258
:10047000002104F1240305E000F00F060009965D59
:100480005E54491C0028F7D120780023000704D5CA
:10049000702D02D009B1022311322046BDE8704010
:1004A00000F03EB98CCE00002DE9F05F894604468D
:1004B0004FF0000ADFF874B1FB44C0F820A02046DA
:1004C000E1688847002874D0252806D0D4E90121A6
:1004D0009047206A401C2062F1E700265F462046D4
:1004E000E16888472028054607DB312D05D27819B9
:1004F00010F8200C08B10643F1E7B00701D526F04B
:100500000406C4F81CA00027C4F818A02A2D09D09E
:10051000284603F069FF38B304EB8708303DC8F87C
:10052000185019E059F8041B204604EB870291612A
:10053000E1688847012F054618D1E069002820DAD4
:1005400026F020061DE0D8F8180000EB800005EB2F
:1005500040003038C8F818002046E1688847054652
:1005600003F042FF0028EED1012F0AD02E2D08D132
:100570002046E16888477F1C0546022F46F020068A
:10058000C4DBA069002803DA404246F00106A061FE
:10059000F00701D026F010066C2D0BD0682D09D085
:1005A0004C2D39D06A2D35D0742D35D07A2D33D0DD
:1005B00016E038E0E1682F4620468847B8420546F5
:1005C00009D16C2F26D04FF48060E16806432046A5
:1005D0008847054604E06C2F1AD04FF4807006431C
:1005E0000DB3A5F14100192802D8203546F4006664
:1005F0004A462946204626604E46FFF7F3FD80B165
:1006000001280BD0F61D26F0070000F1080956E777
:100610004020E4E78020D8E70020D6E706F104096F
:100620004DE7284652E7206ABDE8F09F62CE000001
:10063000032A40F2308010F0030C00F0158011F80E
:10064000013BBCF1020F624498BF11F801CB00F8E6
:10065000013B38BF11F8013BA2F1040298BF00F83A
:1006600001CB38BF00F8013B11F0030300F0008319
:10067000083AC0F0088051F8043B083A51F804CB1E
:10068000A0E80810F5E7121D5CBF51F8043B40F8E4
:10069000043BAFF30080D20724BF11F8013B11F8EF
:1006A00001CB48BF11F8012B24BF00F8013B00F833
:1006B00001CB48BF00F8012B704702F0FF0343EA6B
:1006C000032242EA024200F007BB4FF0000200B5ED
:1006D000134694469646203922BFA0E80C50A0E865
:1006E0000C50B1F12001BFF4F7AF090728BFA0E813
:1006F0000C5048BF0CC05DF804EB890028BF40F8DF
:10070000042B08BF704748BF20F8022B11F0804F20
:1007100018BF00F8012B704770477047704770474B
:100720002DE9F0470D4699469246044600F124080B
:100730000168880604D5E06921F01001216000E01D
:100740000120A84201DD471B00E00027A1697A19BA
:1007500002EB0900081AA0612078C00602D42046E6
:10076000FFF7EAFD002608E0D4E901211AF80600A7
:100770009047206A401C761C20624E45F4DB2078AE
:10078000C0060AD52046FFF7D7FD06E0D4E90121CF
:1007900030209047206A401C2062381EA7F10107D4
:1007A000F4DC07E0D4E9012118F805009047206A3D
:1007B000401C2062281EA5F10105F3DC2046FFF74E
:1007C000D1FD2078000602D50220BDE8F087012087
:1007D000FBE770472DE9FF4F0C461E464FF0FF37F1
:1007E0008BB0D2E90001DDF860800A908A46C1F33F
:1007F0000A5505B93D46002108464FF00000BAF100
:10080000000F00F4400005DA00EB80004FF44001D7
:1008100001EA50004FEA9059B9F1010F00DDB946E5
:100820000A9850EA4A000ED044F61050A5F2FF355F
:1008300045432F14B8F1000F1ED07542291E1EDD4E
:10084000C9F100021CE0B8F1010F4FF0000001D027
:10085000302103E0F24305E02154401CB042FBDBB1
:1008600030460022002121540B99C1F80880C1E9CB
:1008700000200FB0BDE8F08FBD1B6D1CDEE74A46BF
:1008800000DA694206A800F0D1FA06AB93E8070047
:1008900003AB83E8070050460A9900F0AFFB8DE8F0
:1008A0000700A0F500501F3800900398002D0ADDC6
:1008B00042F21F014A460844002303A903906846F8
:1008C00000F018FE09E0A0F500504A461F3800234A
:1008D00003A90390684600F022FE8DE8070000049B
:1008E000000C03D04FF0FF30410800E01046B8F193
:1008F000000F03D00022009215461EE0751E05D49D
:1009000000F00EFA303262556D1EF9D5B346012261
:10091000084302D000227F1C04E02078302801D157
:1009200000227F1E002A099784D01DE0112D07DACE
:1009300000F0F6F9303262556D1C50EA0102F5D133
:10094000084302D00098C8B10EE00021681E05E0FF
:10095000235C625C63542254401E491C8142F7DBD5
:10096000AB46A81B401E0990002004F80B000B9812
:10097000099AC0F80880C0E9002B7AE711264FF0E9
:10098000000857E72DE9F04F88460446D21D22F0B3
:10099000070191B0D1E90001CDE90A0103F0AEFCF5
:1009A00002460B98C00F01D02D2007E02068810778
:1009B00001D52B2002E0202101EAC000032A099082
:1009C00001D0072A05DB03464146204600F0EEF938
:1009D0000BE12078800601D5E06900E00620B8F13F
:1009E000650F814606D0B8F1660F18D0B8F1670FD1
:1009F00070D131E00020B9F1110F009001DB11231B
:100A000001E009F101030AAA01A90CA8FFF7E2FE1F
:100A1000DDE90C70002609F10105834647E001205D
:100A20004B4600904FF000470AAA01A90CA8FFF717
:100A3000D1FEDDE90DB00C995D46002610B909F133
:100A400001000D18B9EB050003D4C0F1FF3609F120
:100A50000105A5EB09002BE0B9F1010F01DA4FF018
:100A600001090020B9F1110F0090484601DD112362
:100A700000E003460AAA01A90CA8FFF7ABFEDDE9D6
:100A80000C704D4600268346207800070AD4AB45FB
:100A900000DA5D4601A8012D04DD411911F8011CA1
:100AA000302907D04F4502DA17F1040F04DA01208C
:100AB00082460FE06D1EEEE7002F02DCED1B3E4488
:100AC00003E0781CA84200DD7D1CB81B00F1010A80
:100AD0004FF000472078000703D4AA4501DB4FF010
:100AE000FF3A0021B7F1004F0DF143088DF8431094
:100AF00024D002202B23002F01DA7F422D230A214C
:100B0000021EA0F1010000DC5FB197FBF1FC97FB36
:100B1000F1F201FB1C7C17460CF1300C08F801CDFA
:100B2000EEE7A8F1010003702188090501D54521F0
:100B300000E06521A0F1010800F8011C09980FA947
:100B4000A1EB0807FF1D00B10120411901EBEA707C
:100B5000A1693844081A401EA0612078C00602D45A
:100B60002046FFF7E9FB099828B1D4E90121904715
:100B7000206A401C20622078C00622D52046FFF75C
:100B8000DBFB1EE0002E04DBB34502DD01A8805D27
:100B900000E03020D4E901219047206A401C206207
:100BA000761CAAF101005FEA000A0AD100F0B4F84D
:100BB000C0680168405CD4E901219047206A401C6C
:100BC0002062281EA5F10105DCDC07E0D4E9012143
:100BD00018F8010B9047206A401C2062381EA7F1CC
:100BE0000107F3DC2046FFF7BDFB032011B041E60F
:100BF00001694A1C02610878704700B58FB0CDE9E1
:100C000001310021059105497944CDE903101146D0
:100C10006846FFF749FC0FB000BD0000E5FFFFFF8D
:100C200010B5436913B1AFF3008001E0FFF7ABFBF0
:100C3000012010BD127800F124010A7000224A70D0
:100C40000122EDE711684FF0FF32E9E7074B70B57D
:100C50000D467B44FFF7D1FF0446284600F058F9C3
:100C600010B14FF0FF3070BD204670BD8F400000C6
:100C700010B5203AC0F00B80B1E81850203AA0E837
:100C80001850B1E81850A0E81850BFF4F5AF5FEA6B
:100C9000027C24BFB1E81850A0E8185044BF18C91E
:100CA00018C0BDE810405FEA827C24BF51F8043BC5
:100CB00040F8043B08BF7047D20728BF31F8023B19
:100CC00048BF11F8012B28BF20F8023B48BF00F8AD
:100CD000012B70474FF000020429C0F0128010F081
:100CE000030C3FF4F4ACCCF1040CBCF1020F18BFC0
:100CF00000F8012BA8BF20F8022BA1EB0C01FFF795
:100D0000E6BC5FEAC17C24BF00F8012B00F8012B90
:100D100048BF00F8012B704700487047506800201A
:100D200030B5B0F10A024FEA900E71F100034EEABD
:100D3000817EB0EB0E0061EB91014FEA101E4EEA8E
:100D4000017E10EB0E0041EB11114FEA102E4EEA1E
:100D5000016E10EB0E0041EB11214FEA104E4EEAEE
:100D6000014E10EB0E0041EB1141401841F1000122
:100D70004FEAD00040EA41704FEAD10110EB800504
:100D80004FEA810444EA907444EB01046D1944EB8A
:100D90000404521BA3414FF0000348BF0A3200D5A0
:100DA00030BD401C41F1000130BD00002DE9F04193
:100DB0001F46044603260168072A01F4006004DB8D
:100DC00008B116A505E016A503E008B115A500E0D9
:100DD00015A521F010002060A069C01EA0610FB110
:100DE000401EA0612046FFF7A7FA4FB1D4E90121C8
:100DF00038469047206A401C2062C01C206206E0F2
:100E0000206AFAE7D4E9012115F8010B9047761E14
:100E1000F8D22046FFF7A6FABDE8F0814E414E0019
:100E20006E616E00494E4600696E66002DE9F0471E
:100E3000814616468AB0354878440DC88DE80D00C5
:100E400032487844801C03AC0DC884E80D0041F69C
:100E50009B300844372190FBF1F290FBF1F5A5F1AE
:100E6000800501FB12041B3C02D56442012000E016
:100E70000020DFF898A080460027FA44AAF1BE0AB5
:100E80000EE0E0070AD03246684607EB470101232F
:100E90000AEB810100F043FB8DE8070064107F1C22
:100EA000002CEED1194F7F44AE3F19E0E80715D072
:100EB00007EB04100DF1180A90E80E008AE80E0006
:100EC000C068F04201D1981908903246012306A962
:100ED00003A800F024FB03AB83E807006D10641C3B
:100EE000002DE3D14FF0010332466946B8F1000FFF
:100EF00003A802D000F0FEFA01E000F010FBC9E9FF
:100F00000001C9F808200AB0BDE8F08710C600004B
:100F1000007B00F080007047004870473068002078
:100F20007546FFF7F9FFAE4605006946534620F0C7
:100F30000700854618B020B5FFF7DEF9BDE8204070
:100F40004FF000064FF000074FF000084FF0000B85
:100F500021F00701AC46ACE8C009ACE8C009ACE838
:100F6000C009ACE8C0098D46704710B50446AFF320
:100F700000802046BDE81040FFF75DB94FF0013C0E
:100F800050F8042B51F8043B9A4221D1A2EB0C03F8
:100F9000934313EACC1317D150F8042B51F8043BB8
:100FA0009A4215D1A2EB0C03934313EACC130BD155
:100FB00050F8042B51F8043B9A4209D1A2EB0C03E0
:100FC000934313EACC13DBD04FF00000704700BF0F
:100FD000D01A01BAB1FA81F101F0180122FA01F038
:100FE000CB40C1F12001DBB2C0B2C01A2CFA01F330
:100FF000D11A914311EAC311E6D170475FEA400C60
:1010000008BF91F0000F4FEA8C234FEAC12243EA58
:1010100051514FEA1C5018BF00F5F0404FEA300024
:1010200018BF41F000415FEA6C5C00F02980BCF120
:10103000FF3F08BF40F080407047130C06BF12040A
:101040004FF0100C4FF0000C130E04BF12020CF105
:10105000080C130F04BF12010CF1040C930F04BF12
:1010600092000CF1020CD30F04BF52000CF1010CE2
:1010700011464FF00002A0F11F00A0EB0C007047DA
:1010800011F0004F08BF704731F000413FF4D5AF79
:101090000B0C06BF09044FF0100C4FF0000C0B0EA8
:1010A00004BF09020CF1080C0B0F04BF09010CF17D
:1010B000040C8B0F04BF89000CF1020CCB0F04BF92
:1010C00049000CF1010CCCF12003A0EB0C0022FA3A
:1010D00003F302FA0CF241EA030100F10100704748
:1010E00020F07F4C80EA030023F07F47ACEB07033E
:1010F00003F57C5300F0004003F1FF032DE9804924
:101100004FEA154B09B44FEA144325EA0B4E24EA83
:1011100003480FF2042606EB132749083E785FEADE
:10112000320203FB0667C7F5000707FB06F64FEA26
:1011300054374FEAD64606F1020607FB066CCCF19F
:10114000005C4FEA1C472CEA074C07FB06F40CFB3B
:1011500006F504EB15464FEA961634BF00204FF013
:1011600000404FEAD13706FB07FC4FEA1C4C0CFB52
:101170000BF7D21B03FB0CF761EB07010CFB0EF71F
:10118000B0EB074072EB17420CFB08F734BFA2EB41
:101190000742B2EB074261EB17414FEA0C444FEABA
:1011A000910706FB07FC4FEA1C4C0CFB0BF7B0EB5E
:1011B000C74072EB573203FB0CF734BFA2EBC742B8
:1011C000B2EBC74261EB57310CFB0EF7B0EBC70037
:1011D00072EB57720CFB08F734BFA2EBC702B2EBFD
:1011E000C70261EB5771039F4FEA816141EA921197
:1011F00004EBCC044FEAD1374FEA826206FB07FCCE
:1012000042EA90124FEA80604FEA1C4C0CFB0BF74D
:10121000D21B03FB0CF761EB07010CFB0EF7B0EBE5
:10122000074072EB17420CFB08F734BFA2EB0742F2
:10123000B2EB074261EB17414FEA8C554FEA910739
:1012400004EB9C2406FB07FC4FEA1C4C0CFB0BF741
:10125000B0EBC74072EB573203FB0CF734BFA2EB85
:10126000C742B2EBC74261EB57310CFB0EF7B0EB54
:10127000C70072EB57720CFB08F734BFA2EBC70232
:10128000B2EBC70261EB577115EB4C254FEA816158
:1012900041EA92114FEA82624FEAD13742EA901254
:1012A00006FB07FC44F100044FEA80604FEA1C4C47
:1012B0000CFB0BF7D21B03FB0CF761EB07010CFBDC
:1012C0000EF7B0EB074072EB17420CFB08F734BF88
:1012D000A2EB0742B2EB074261EB174115EB1C157D
:1012E0004FEA813141EA92414FEA823242EA90422A
:1012F0004FEA80304FEA0C7644F1000448EA034399
:101300004EEA0B484FF0000EB2EB080C71EB0307EE
:1013100024BF624639464EEB0E0E4FF0000B00180C
:10132000524149414BEB0B0BB2EB080C71EB03073D
:101330007BF1000B24BF624639464EEB0E0E4FF098
:10134000000B0018524149414BEB0B0BB2EB080C60
:1013500071EB03077BF1000B24BF624639464EEB6D
:101360000E0E51EA020718BF46F0010616EB0E7684
:1013700055F1000254F1000103D5BDE88901BDE833
:101380000088BDE88901BDE80048B619524141EB2B
:101390000101A3F10103704780807F7E7D7C7B7A11
:1013A0007978777676757473727171706F6E6E6D11
:1013B0006C6C6B6A6A6968686766666564646363B7
:1013C00062616160605F5F5E5E5D5D5C5C5B5B5A3D
:1013D0005A595958585757565655555554545353AA
:1013E00052525251515050504F4F4F4E4E4D4D4D05
:1013F0004C4C4C4B4B4B4A4A4A4949494848484750
:10140000474747464646454545444444444343438D
:101410004342424242414141002B9C4630D4770036
:101420002BD01CB54FEA370703B44FF010004FF034
:101430001001BAF1000F06D0BCF1000FDCBF40F084
:10144000080040F008014FF000000FBCBDE810405C
:101450000BF1010BBBF1010F08BF5FEA170722BFB9
:1014600012F1010211F101014FF0004143F10003BB
:1014700000F0004043EA00007047F9D35708D0E776
:1014800046EA064613F1400F4FEA16461FDD13F1F8
:10149000200FDFBF16430A46002120335B42BED037
:1014A000C3F1200746EA064602FA07F74FEA164656
:1014B00046EA0706C3F1200722FA03F201FA07F70A
:1014C00021FA03F14FF0000342EA0702A7E746EAD8
:1014D000020646EA06464FEA164646EA0106BCBF41
:1014E00046EA0646360C4FF000034FF000024FF07C
:1014F000000194E72DE9804C9A46934670B491E838
:10150000380007C831EA400C48BF34EA430C03D521
:10151000FFF7E6FDFFF780FFF0BCBDE8008C2DE98A
:10152000804C9A46934670B491E8380007C810F092
:10153000804F08BF13F0804F03D100F005F8FFF78C
:101540006BFFF0BCBDE8008C20F07F4780EA030011
:1015500023F07F4C07EB0C03A3F57C5300F0004015
:10156000A3F1FE0392F0000F00F0B38095F0000F9E
:1015700000F077802DE901494FEA11404FEA144607
:1015800021EA004800FB06FC24EA064708FB06F6B1
:1015900007FB08F800FB07F718EB06484CEB164C66
:1015A0004FEA124B18EB07484FEA15464CEB174031
:1015B00022EA0B4E0BFB06FC25EA06470EFB06F65D
:1015C00007FB0EFE0BFB07F71EEB064E4CEB164C13
:1015D0004FF000061EEB074E4CEB174B18EB0B08B9
:1015E00040F1000018EB0E0B58EB000840F1000032
:1015F0008F1A4FF000013CBFC943661B14BFB5EB07
:10160000040C00213CBFC943F61B4FEA17444EEAC5
:101610008E0E27EA04454FEA1C4704FB07622CEABA
:10162000074C05FB07F70CFB05F604FB0CFC16EB5F
:10163000074642EB174216EB0C4642EB1C421BEBF3
:10164000060658EB0202414146EA9E0601D5BDE876
:101650000189B619524141EB0101A3F10103BDE833
:1016600001894FEA14454FEA114724EA054621EA69
:10167000074C05FB07F406FB07F70CFB06F105FB1F
:101680000CFC11EB074144EB17444FEA124711EBF6
:101690000C4144EB1C4422EA074C05FB07F206FB15
:1016A00007F70CFB06F605FB0CFC16EB074642EBB6
:1016B000174216EB0C4642EB1C456A1854F1000128
:1016C00048BF7047B619524141EB0101A3F1010334
:1016D000704795F0000F37D04FEA11424FEA144798
:1016E00021EA024624EA074C02FB07F106FB07F752
:1016F0000CFB06F402FB0CFC14EB074441EB174116
:101700004FEA154714EB0C4441EB1C4125EA074C0A
:1017100002FB07F506FB07F70CFB06F602FB0CFCC9
:1017200016EB074645EB174516EB0C4645EB1C42FE
:10173000121951F1000148BF7047B619524141EBEF
:101740000101A3F1010370474FEA14454FEA114725
:1017500024EA054621EA074C05FB07F106FB07F7DB
:101760000CFB06F24FF0000605FB0CFC12EB0742E7
:1017700041EB174112EB0C4251EB1C4148BF704743
:10178000921841EB0101A3F10103704721B1826876
:1017900042F00102826003E0826822F0010282606E
:1017A000704721B1826842F48072826003E08268EF
:1017B00022F480728260704710B504461248844259
:1017C00008D10121401501F01FFB0021601501F037
:1017D0001BFB17E00D48844208D10121001501F0E0
:1017E00013FB0021201501F00FFB0BE00848844299
:1017F00008D10121C80301F007FB00214FF400408C
:1018000001F002FB10BD000000240140002801404F
:10181000003C0140014600208A6802F004020AB13F
:10182000012000E000207047014600208A6802F095
:1018300008020AB1012000E00020704730B50246DE
:101840000020002350680F4C20400D790C6844EABA
:1018500005242043506090680B4C2040D1E902548D
:101860002C434D7944EA450420439060D06A20F42B
:1018700070000C7C641EE4B2234340EA0350D06243
:1018800030BD0000FFFEF0FFFDF7F1FFF0B50446AC
:101890000D4600200021092D11DDE068A5F10A06A2
:1018A00006EB4607072606FA07F18843A5F10A0664
:1018B00006EB460603FA06F10843E0600CE02069F7
:1018C00005EB4507072606FA07F1884305EB4506B1
:1018D00003FA06F108432061072A0FDA606B561EEF
:1018E00006EB86071F2606FA07F18843561E06EB0D
:1018F000860605FA06F10843606322E00D2A0FDA36
:10190000206BD61F06EB86071F2606FA07F18843D1
:10191000D61F06EB860605FA06F10843206310E0A1
:10192000E06AA2F10D0606EB86071F2606FA07F10C
:101930008843A2F10D0606EB860605FA06F1084378
:10194000E062F0BD816841F008018160704721B11B
:10195000826842F4A002826003E0826822F4A0025E
:1019600082607047816841F0040181607047000027
:1019700010B5642300221146354801F053F90128BF
:101980002CD13448008A0A2190FBF1F032490988B1
:101990000844314908802F48408A0A2190FBF1F021
:1019A0002E49098808442D4908802A4880880A2140
:1019B00090FBF1F02A490988084429490880254804
:1019C000808A0A2190FBF1F02649098808442549BC
:1019D000088025480078401C234908702248007878
:1019E0000A2834DB1C480088B0F5966F01DD012021
:1019F00000E0002019490988B1F5966F01DD012149
:101A000000E00021084316490988B1F5966F01DD11
:101A1000012100E00021084312490988B1F5966FC1
:101A200001DD012100E00021084328B100210F4819
:101A3000C1700FA0FEF774FC002007490880074919
:101A4000088007490880074908800749087010BDC9
:101A5000E41300202014002066000020680000200D
:101A60006A0000206C000020640000204403002075
:101A7000B5E7BBFABFA8D7A1C1CB0D0A0000000093
:101A800010B5B6217E2000F0D3F94FF4FA7002F0C1
:101A9000B9FE06E04FF47A7002F0B4FE11A0FEF732
:101AA0003FFC00F081F9D128F4D10321412000F05E
:101AB000BFF9642002F0A6FE2C21422000F0B8F904
:101AC000642002F09FFE0321432000F0B1F964205E
:101AD00002F098FE09A0FEF723FC01200E490870D1
:101AE00010BD0000424D4931363020494E49542046
:101AF0004552522121210D0A00000000424D49317A
:101B0000363020494E4954205355434345535321C1
:101B100021210D0A00000000C000002070B504461D
:101B20004FF48051084800F03AFF44F0800001F083
:101B3000E5F9FF2001F0E2F905464FF48051024833
:101B400000F02FFF284670BD000C01402DE9F04F3A
:101B50008BB000200790069011217E2000F068F9DC
:101B6000052002F06FFE1220FFF7D8FF0446132075
:101B7000FFF7D4FF44EA00240FFA84FB1420FFF798
:101B8000CDFF81461520FFF7C9FF49EA00290FFA6A
:101B900089F009901620FFF7C1FF82461720FFF752
:101BA000BDFF4AEA002A0FFA8AF0089008980AF066
:101BB000F8FCCDE9020158460AF0F3FCCDE900013A
:101BC000DDE9022302F02AFD074600221D4B0AF040
:101BD0004FFD1D4A1D4BCDE904010AF05BFB054694
:101BE0000AF0B0FC40B2079008980AF0DAFC074609
:101BF000884609980AF0D5FC3A464346CDE90001EB
:101C000002F00CFD054600220E4B0AF031FD0E4A93
:101C10000E4BCDE902010AF03DFBCDE904010AF0CB
:101C200091FC40B2069007980BF018F9054601F0B8
:101C3000C7F906980BF012F9054601F0CDF90BB083
:101C4000BDE8F08F008066406E861BF0F9210940E8
:101C50002DE9F04F93B000200E9000F035FF0E906C
:101C600015217E2000F0E4F80A2002F0EBFD0C20A4
:101C7000FFF754FF04460D20FFF750FF44EA00240D
:101C800020B21190FA211198484347F6FF7190FB5A
:101C9000F1F000B211900E20FFF740FF81460F20B7
:101CA000FFF73CFF49EA00290FFA89F01090FA216A
:101CB0001098484347F6FF7190FBF1F000B2109086
:101CC0001020FFF72BFF82461120FFF727FF4AEA7B
:101CD000002A0FFA8AF00F902A4800780AF078FC60
:101CE000CDE908010F980BF0B9F8019026488168FA
:101CF00001980BF011FA83460AF0E4FE0746002231
:101D0000224B0AF0B5FC0022214BCDE902010AF07A
:101D1000C1FA204A204BCDE904010AF0A9FCCDE923
:101D20000601DDE908230AF0A3FCCDE90C010E98B9
:101D30000AF0C8FECDE90A01DDE90C230AF0EEF94C
:101D400005460AF0B9F90E9000200E4908701349B3
:101D50000E980BF0AFF905D211490E980BF0DCF993
:101D60000E9009E00F490E980BF0A4F804D80C4926
:101D70000E980AF0D3FE0E900E9801F051F913B0B0
:101D8000BDE8F08F3A0000203C14002000406F4076
:101D9000C0FFDF407B14AE47E17A743F000034435C
:101DA0000000B443000034C310B500240020FFF746
:101DB000B5FE0446204610BD2DE9F84F15217E20C2
:101DC00000F036F8642002F03DFD0C20FFF7A6FE7F
:101DD00004460D20FFF7A2FE44EA002427B20E209D
:101DE000FFF79CFE05460F20FFF798FE45EA002509
:101DF0000FFA85F81020FFF791FE06461120FFF735
:101E00008DFE46EA00260FFA86F948460BF026F8C2
:101E1000824640460BF022F8834638460BF01EF807
:101E200052465946009006F085F9BDE8F88F00004B
:101E300070B504460D464FF48051084800F0AFFDE0
:101E400004F07F0001F05AF8284601F057F84FF4EB
:101E50008051024800F0A5FD70BD0000000C01405B
:101E600000BFFEE71CB500200190022000F000F941
:101E700001280FD1022000F021F800210648FFF7C9
:101E800085FC01A80023022201210090034800687C
:101E900009F0AAFD1CBD000000240140A4000020A0
:101EA00000F0805111B10349086001E00249486027
:101EB00070470000040402400000024000F080511E
:101EC00011B10349086001E0024948607047000011
:101ED000040402400000024021B1026842F0010205
:101EE000026004E002684FF6FE731A400260704719
:101EF00001684FF6FE7211400160002101604160EF
:101F00008160C1604B49884208D14A490839496813
:101F100041F00F01474A083A51608AE045491431BF
:101F2000884208D143490839496841F0F001414AE3
:101F3000083A51607DE03F492831884208D13D4947
:101F40000839496841F470613A4A083A516070E0D2
:101F500038493C31884208D136490839496841F44A
:101F60007041344A083A516063E032495031884246
:101F700008D130490839496841F470212D4A083A9E
:101F8000516056E02B496431884208D1294908390B
:101F9000496841F47001274A083A516049E02549EF
:101FA0007831884208D123490839496841F0706185
:101FB000204A083A51603CE01F49884206D1011F7F
:101FC000096841F00F01021F116032E01A49143113
:101FD000884208D11849091F096841F0F001164AE2
:101FE000121F116025E014492831884208D1124996
:101FF000091F096841F470610F4A121F116018E04F
:102000000D493C31884208D10B49091F096841F448
:102010007041094A121F11600BE007495031884294
:1020200007D10549091F096841F47021024A121FAE
:1020300011607047080002400804024001464868E9
:1020400080B2704701460020002201F0805313B196
:10205000054B1A6801E0054B1A6802EA01030BB14F
:10206000012000E000207047000402400000024010
:1020700001460020002201F0805313B1054B1A687D
:1020800001E0054B1A6802EA01030BB1012000E0F0
:102090000020704700040240000002401AB10368AB
:1020A0000B43036002E003688B430360704710B585
:1020B0000022026847F6F0739A430C6A8B68234348
:1020C0000C6923434C6923438C692343CC69234324
:1020D0004C6A23438C6A23431A430260CB684360F3
:1020E0000B6883604B68C36010BD000010B535A05D
:1020F000FEF716F934480088411C34A0FEF710F9A9
:102100003148001F0088411C34A0FEF709F92E4811
:102110002C3801F081FD441C214633A0FEF700F964
:102120002948001F0088401C334991FBF0F42146E8
:1021300032A0FEF7F5F824482C3801F06DFD401C64
:102140006421484320490988491C90FBF1F4214649
:102150002EA0FEF7E5F81BA0FEF7E2F82F488188D5
:102160002FA0FEF7DDF82D48018832A0FEF7D8F841
:102170002A48C18834A0FEF7D3F82848418837A000
:10218000FEF7CEF80FA0FEF7CBF83948417839A01A
:10219000FEF7C6F83648C1783CA0FEF7C1F83448CF
:1021A000817840A0FEF7BCF83148017943A0FEF7E2
:1021B000B7F82F48017847A0FEF7B2F801A0FEF764
:1021C000AFF810BD0D0A00002C0800405072657376
:1021D00063616C65723A2025640D0A00706572694E
:1021E0006F642025640D0A0050756C73653A2025D4
:1021F00064200D0A0000000040190100C6B5C2CAE3
:1022000020A3BA2564200D0A00000000D5BCBFD56C
:10221000B1C8202564202525200D0A00B800002023
:10222000D7F3C7B04144D6B52020202564200D0A3D
:1022300000000000D7F3BAF34144D6B52020202592
:1022400064200D0A00000000D3D2C7B04144D6B5C7
:102250002020202564200D0A00000000D3D2BAF30C
:102260004144D6B52020202564200D0A0D0A000027
:10227000B2000020D7F3C7B0D0FCBFD5B1EAD6BEBC
:10228000203A202564200D0A00000000D7F3BAF39D
:10229000D0FCBFD5B1EAD6BE2020202564200D0A8F
:1022A00000000000D3D2C7B0D0FCBFD5B1EAD6BE83
:1022B0002020202564200D0A00000000D3D2BAF3AC
:1022C000D0FCBFD5B1EAD6BE2020202564200D0A5F
:1022D00000000000C8CED2E2D2BBB8F6B5D8BCEC44
:1022E000BCECB2E2B5BDD0FCBFD5202020202564D7
:1022F000200D0A0001460A2900DC09B900207047B8
:102300002420214A10700B293CD2DFE801F03B0663
:102310000B10151A1F24292F350005201A4A507159
:102320000620ECE70920184A50720A20E7E70D2042
:10233000154A50730E20E2E71120134A5074122000
:10234000DDE71520104A50751620D8E719200E4AEF
:1023500050761A20D3E71D200B4A50771E20CEE777
:102360002120094A82F821002220C8E72520064AB8
:1023700082F825002620C2E72920034A82F8290096
:102380002A20BCE70020BAE70468002013B50C46F9
:102390000A2C00DC04B91CBD0B2C43D2DFE804F08E
:1023A00042060C12181E242A30363C0001221F4916
:1023B000684600F0E9F935E005221C49684600F05E
:1023C000E3F92FE009221949684600F0DDF929E018
:1023D0000D221649684600F0D7F923E0112213496F
:1023E000684600F0D1F91DE015221049684600F05A
:1023F000CBF917E019220D49684600F0C5F911E044
:102400001D220A49684600F0BFF90BE02122074966
:10241000684600F0B9F905E025220449684600F055
:10242000B3F900BF00BF00BFB5E70000046800209B
:10243000704700001C48007800B31B48C1781B4857
:10244000407A61F3041019494872174841781748D7
:10245000407A61F3C3001549487213480179134863
:10246000407A61F38610114948720F4881780F480D
:10247000407A61F345100D49487214E00B48407AE8
:1024800020F0100109484172407A20F00801074805
:102490004172407A20F0400104484172407A20F0B5
:1024A0002001024841727047B2000020440300201E
:1024B00010B54FF4005000F009F9012805D1400390
:1024C00000F0FEF80CA0FDF72BFF4FF4806000F049
:1024D000FDF801280FD1800200F0F2F80C480168E5
:1024E0000C48827A61F341028272807AC0F3400123
:1024F00009A0FDF715FF10BD455854495F4C696EA2
:102500006531332020B5E7B3D8B4EDCEF30D0A0022
:102510002881224244030020455854495F4C696E8B
:1025200065313020D3D2C5F6D7B2202564200D0AFC
:102530000000000010B5022000F0C8F8012810D1FA
:10254000022000F0BDF8074800680749497A60F3A7
:10255000820105484172407AC0F3800103A0FDF773
:10256000DFFE10BD04812242440300204558544937
:102570005F4C696E653120D3D2C2D6D0FCBFD52066
:102580002564200D0A00000010B5042000F09EF81C
:10259000012810D1042000F093F80748006807498B
:1025A000497A60F3410105484172407AC0F3400125
:1025B00003A0FDF7B5FE10BD0881224244030020B0
:1025C000455854495F4C696E653220D7F3C2D6D066
:1025D000FCBFD5202564200D0A00000010B508209E
:1025E00000F074F8012805D1082000F069F802A075
:1025F000FDF796FE10BD0000455854495F4C696ECA
:10260000653320B3E4B5E7D7F9C0EBBFAA0D0A00E4
:1026100010B54FF4807000F059F801280FD1000276
:1026200000F04EF81B4801681B48827A61F30002F3
:102630008272807A00F0010118A0FDF771FE8020FF
:1026400000F044F820B3802000F03AF880211948C7
:1026500000F09CF9B0B11848008818490880084675
:1026600000884988884209DD144800881349498850
:10267000401A124988800120887109E000200F4922
:10268000887110BD00200D4988710B480088488072
:1026900000BFF6E7208122424403002045585449F8
:1026A0005F4C696E653820D7F3C5F6D7B220256434
:1026B000200D0A00001001402414004032000020C8
:1026C00001490860704700001404014001460020E1
:1026D0000022074B1B6803EA0102054B14331B68F9
:1026E0000B4013B10AB1012000E000207047000048
:1026F00000040140002123498279002A3AD00A4689
:10270000126803689A430B461A600A1D1268036830
:102710009A430B1D1A60027911440A6803681A4330
:102720000A60184A0832126803689A43154B083346
:102730001A601A1D126803689A43124B0C331A6010
:102740004279102A0ED11A1F126803681A430D4BE2
:1027500008331A601A1D126803681A43094B0C33B8
:102760001A600DE00749427911440A6803681A4368
:102770000A6005E0027911440A6803689A430A6016
:10278000704700000004014030B503461C788C54AB
:102790005D78541C0D559D78941C0D55DD78D41C26
:1027A0000D5530BD30B500228B071C0F0F2303FAE7
:1027B00004F20B4B8C1053F824309343084C8D10CB
:1027C00044F8253023468C1053F824308C07240F0E
:1027D00000FA04F42343024C8D1044F8253030BD38
:1027E000080001402DE9F0410246002500260020A6
:1027F00000230024002791F803C00CF00F0591F886
:1028000003C00CF0100CBCF1000F03D091F802C013
:102810004CEA050591F800C0BCF1000F31D01468F6
:1028200000202BE04FF0010C0CFA00F3B1F800C0CF
:102830000CEA03069E4220D183004FF00F0C0CFAE5
:1028400003F7BC4305FA03FC4CEA040491F803C007
:10285000BCF1280F06D14FF0010C0CFA00FCC2F8B5
:1028600014C00AE091F803C0BCF1480F05D14FF045
:10287000010C0CFA00FCC2F810C0401C0828D1D38F
:102880001460B1F800C0BCF1FF0F34DD54680020C3
:102890002EE000F1080C4FF0010808FA0CF3B1F833
:1028A00000C00CEA03069E4221D183004FF00F0CBA
:1028B0000CFA03F7BC4305FA03FC4CEA040491F854
:1028C00003C0BCF1280F05D100F1080C08FA0CF880
:1028D000C2F8148091F803C0BCF1480F07D100F191
:1028E000080C4FF0010808FA0CF8C2F81080401CE0
:1028F0000828CED35460BDE8F0810000F0B50A4648
:10290000002300240021002500F00046B6F1004F0E
:1029100002D11D4EF16901E01B4E7168C0F3034501
:1029200083B200F44016B6F5401F08D121F0706163
:10293000154E766826F07066134F7E6012E000F444
:102940008016B6F5801F06D1032606FA05F4A143CA
:1029500041F0706106E0460D360103FA06F6B14318
:1029600041F0706122B1460D360103FA06F631439B
:1029700000F00046B6F1004F02D1034EF16101E0D4
:10298000014E7160F0BD00000000014002460020D1
:1029900093680B400BB1012000E0002070474161BB
:1029A00070470161704700001FB5002400200090AF
:1029B00001900290039000BF3FE0012007F0A4FEC9
:1029C0003E49098BA1F50060002801DB014600E0CB
:1029D00041420A2291FBF2F1029A114402913749D5
:1029E000C988A1F50060002801DB014600E04142F2
:1029F0000A2291FBF2F1039A114403912F49C98AEB
:102A0000A1F50060002801DB014600E041420A22F6
:102A100091FBF2F1009A1144009128498989A1F5AE
:102A20000060002801DB014600E041420A2291FBE0
:102A3000F2F1019A11440191641C0A2CBDDB029849
:102A40000F2801DC012000E000201D494870039898
:102A50000F2801DC012000E000201949887000984F
:102A60000F2801DC012000E000201549C870019802
:102A70000F2801DC012000E0002011490871084600
:102A80004078897808430E49C97808430C49097988
:102A9000084308B1012000E00020094908700949F5
:102AA0000398C88001984880029888800098088020
:102AB000002000900190029003901FBD2014002080
:102AC000B2000020B8000020014880687047000074
:102AD000AC140020024B0ECB80E80E0070470000C3
:102AE000D806002000BFFEE710B500200F4908609F
:102AF0000F48006820F070400D49086008460068E3
:102B000040F04050086000200A49C1F89C010220B2
:102B100001F098FE012005490860022001F092FEB4
:102B200000200449C1F8980110BD0000988121429D
:102B3000000C01400080214210B500200F490860C0
:102B40000F48006820F070400D4908600846006892
:102B500040F04050086001200A49C1F89C01022061
:102B600001F070FE012005490860022001F06AFEB4
:102B700000200449C1F8980110BD0000988121424D
:102B8000000C01400080214210B50F48006820F081
:102B900070400D4908600846006840F040500860E9
:102BA00001200A4908600A49C1F89801042001F08F
:102BB00049FE002005490860042001F043FE002082
:102BC0000349C1F8980110BD000C01409C812142CD
:102BD0000080214210B50F48006820F070400D4978
:102BE00008600846006840F04050086000200A492C
:102BF00008600A49C1F89C01042001F023FE01206D
:102C0000054908600549C1F89C01042001F01AFE3D
:102C100010BD0000000C014098812142008021423B
:102C200000BFFEE72DE9F04F85B004468B46914684
:102C30009A4602A8FFF74EFF3C21A068A0FB013096
:102C40006168591840F100034FF47A7C0022A1FB1F
:102C50000C0E03FB0CE301FB02332188451843EB08
:102C600002063C210498A0FB013103981A1841F197
:102C7000000C4FF47A730021A2FB030E0CFB03E35C
:102C800002FB0133BDF80810471843F100083C204F
:102C9000ABFB002012EB090140F1000C4FF47A73FA
:102CA0000022A1FB030E0CFB03E301FB02320346EF
:102CB000104613EB0A0240F10000CDE900207B1B17
:102CC00068EB0601DDE90002C01A8A410AD20498C5
:102CD000A06003986060BDF808002080012005B066
:102CE000BDE8F08F0020FAE77047000070B50021C2
:102CF00000230F22C47804B3154C246804F4E06464
:102D0000C4F5E064210AC1F10403CA40447804FA1E
:102D100003F184781440214309010E4C0678A15533
:102D2000047804F01F050124AC4005786D11AD0056
:102D300005F1E025C5F8004109E0047804F01F051D
:102D40000124AC40044D0678761145F8264070BD4C
:102D50000CED00E000E400E080E100E00249014306
:102D6000024A1160704700000000FA050CED00E017
:102D700001460020034A506820F440400843506058
:102D8000704700000010024029B1064A5269024310
:102D9000044B5A6104E0034A52698243014B5A6171
:102DA000704700000010024029B1064AD269024370
:102DB000044BDA6104E0034AD2698243014BDA61D1
:102DC000704700000010024029B1064A1269024310
:102DD000044B1A6104E0034A12698243014B1A61F1
:102DE000704700000010024029B1064A9269024370
:102DF000044B9A6104E0034A92698243014B9A6151
:102E0000704700000010024029B1064AD268024310
:102E1000044BDA6004E0034AD2688243014BDA6073
:102E2000704700000010024030B50021002200244D
:102E300000232D4D6D6805F00C0121B1042905D04A
:102E4000082923D105E0294D056022E0274D0560C2
:102E50001FE0254D6D6805F47012234D6D6805F473
:102E60008034022505EB92421CB9214D5543056083
:102E70000BE01D4D6D6805F400351DB11C4D55432B
:102E8000056002E0194D5543056002E0174D0560ED
:102E900000BF00BF144D6D6805F0F0010909154D24
:102EA0006B5C0568DD4045600F4D6D6805F4E061C1
:102EB000090A104D6B5C4568DD4085600A4D6D6800
:102EC00005F46051C90A0B4D6B5C4568DD40C56077
:102ED000054D6D6805F44041890B074D6B5CC56875
:102EE000B5FBF3F5056130BD0010024000127A0019
:102EF00000093D005C0100206C01002070B5054612
:102F0000002405E0601CC4B2C82C01DD002070BDA7
:102F100002210E4800F028F80028F3D029460B487B
:102F200000F02EF8002405E0601CC4B2C82C01DDBE
:102F30000020ECE70121054800F016F80028F3D046
:102F4000024800F01AF8C0B2E1E700000038004083
:102F500021B1028842F04002028004E002884FF66C
:102F6000BF731A40028070470246002013890B404D
:102F70000BB1012000E000207047014688897047AE
:102F80008181704710B50022028802F441520B88FB
:102F90004C8823438C882343CC8823430C892343C8
:102FA0004C8923438C892343CC8923431A430280D1
:102FB000838B4FF2FF74234083830B8A038210BDFF
:102FC00010B50446204609F00DFF40B201490870D3
:102FD00010BD0000D400002010B50446204609F0C2
:102FE00001FF40B20149487010BD0000D40000202C
:102FF00010B50446204609F0F5FE40B2014988703C
:1030000010BD0000D4000020014908607047000096
:10301000AC1400200149486070470000AC14002047
:103020000149886070470000AC1400200149087015
:1030300070470000E600002010B500F001F810BD58
:103040000CB50020019000903348006840F48030B7
:103050003149086000BF3048006800F4003000903B
:103060000198401C0190009818B90198B0F5A06F24
:10307000F1D12948006800F4003010B1012000901F
:1030800001E0002000900098012843D12348006807
:1030900040F01000214908600846006820F0030055
:1030A00008600846006840F0020008601A4840685E
:1030B000194948600846406848600846406840F43E
:1030C000806048600846406820F47C1048600846EC
:1030D000406840F4E81048600846006840F080709E
:1030E000086000BF0C48006800F000700028F9D0AC
:1030F0000948406820F003000749486008464068D6
:1031000040F00200486000BF0348406800F00C0037
:103110000828F9D10CBD0000001002400020024038
:103120002DE9FF4F85B09A46DDE9124902A8FFF765
:10313000D1FC3C210798A0FB01300699591840F1B9
:1031400000004FF47A7C0022A1FB0C3B00FB0CB08A
:1031500001FB0200BDF814105D1840EB02063C2193
:103160000498A0FB013103981A1841F1000361464D
:103170004FF0000CA2FB010B03FB01B102FB0C138F
:10318000BDF80810471843EB0C083C20AAFB0010C0
:103190000A1940F1000C4FF47A730021A2FB030BD3
:1031A0000CFB03B302FB0133024612EB090243EBB3
:1031B0000100CDE900207B1B68EB0600DDE9001271
:1031C000C91A824103D2012009B0BDE8F08F002066
:1031D000FAE7042808D14FF0E021096941F0040121
:1031E0004FF0E022116107E04FF0E021096921F082
:1031F00004014FF0E0221161704710B508F09EFC09
:10320000012801D008F074F810BD000010B5134873
:10321000006840F001001149086008464068104904
:1032200008400E494860084600680E4908400B49AE
:1032300008600846006820F480200860084640685E
:1032400020F4FE0048604FF41F008860FFF7F4FE92
:103250004FF000600449086010BD000000100240FB
:103260000000FFF8FFFFF6FE08ED00E0F0B50C46A9
:10327000154600220021068C4FF6FE773E4006845C
:10328000028B018C4FF60C7632407E1C06EA031648
:103290002E433243104EB0420ED0104EB0420BD0EF
:1032A000B0F1804F08D00E4EB04205D00D4EB04266
:1032B00002D00D4EB04206D14FF6FD76314044F0BB
:1032C0000106314305E04FF6F576314044F0010642
:1032D000314302830184F0BD002C014000340140E1
:1032E0000004004000080040000C0040F0B50C460F
:1032F0001546002200210026078C4FF6EF7C07EAD6
:103300000C070784028B018C4FF6FF7707EA04163F
:1033100040F6FF473A404FF6FF7707EA03373A4354
:103320004FF6FF7707EA05273A43114FB8420ED010
:10333000104FB8420BD0B0F1804F08D00E4FB842BA
:1033400005D00E4FB84202D00D4FB84206D14FF60D
:10335000DF77394046F01007394305E04FF65F77D5
:10336000394044F01007394302830184F0BD000066
:10337000002C0140003401400004004000080040DF
:10338000000C0040F0B50C46154600220021002636
:10339000078C4FF6FF6C07EA0C070784828B018CC1
:1033A0004FF6FF7707EA04264FF60C773A404FF6C0
:1033B000FF7707EA03172F433A43114FB8420ED065
:1033C000104FB8420BD0B0F1804F08D00E4FB8422A
:1033D00005D00E4FB84202D00D4FB84206D14FF67D
:1033E000FF57394046F48077394305E04FF2FF57E5
:1033F000394044F48077394382830184F0BD000072
:10340000002C01400034014000040040000800404E
:10341000000C0040F0B50C461546002200210026A5
:10342000078C4EF6FF7C07EA0C070784828B018C21
:103430004FF6FF7707EA043640F6FF473A404FF66B
:10344000FF7707EA05273A434FF6FF7707EA033786
:103450003A43114FB8420ED0104FB8420BD0B0F1E2
:10346000804F08D00E4FB84205D00E4FB84202D060
:103470000D4FB84206D14DF6FF77394046F48057DC
:10348000394305E047F6FF57394044F48057394344
:1034900082830184F0BD0000002C01400034014013
:1034A0000004004000080040000C004010B502215C
:1034B0003E4800F0B5FB012838D102213B4800F01E
:1034C000A1FA00203A490882384800F09FFB3849A9
:1034D000888108468089498988420EDA3448808983
:1034E0004CF25031084432494989401A401C304955
:1034F000897B2F4A22F8110009E02D4880892C4948
:103500004989401A2A49897B294A22F8110028480A
:10351000807B401C052801D1002002E02448807BEC
:10352000401C2349887308468089488104211F482C
:1035300000F076FB012838D104211C4800F062FA23
:1035400000201C490882194800F063FB1949888152
:1035500008468089498988420EDA164880894CF2EB
:103560005031084413494989401A401C1149897B4C
:10357000104A22F8110009E00E4880890D49498956
:10358000401A0C49897B0B4A22F811000948807BBC
:10359000401C052801D1002002E00648807B401C29
:1035A0000449887308468089488110BD002C014079
:1035B000A0130020BC13002030B589B005460C468E
:1035C00001214020FFF710FC0121C802FFF70CFC8D
:1035D00001210846FFF708FC01212D48FFF78EF96D
:1035E0004FF42060ADF8200028208DF8230008A9B2
:1035F0002848FFF7F7F8681E80B2ADF81800601E83
:1036000080B2ADF814000020ADF81A00ADF8160035
:1036100005A9214800F0B4FC0020ADF80400ADF885
:1036200006000120ADF808000020ADF80A000520D2
:10363000ADF80C0001A9184800F004FB0420ADF817
:10364000040001A9144800F0FDFA0621124800F018
:10365000D9F901220221104800F04AFB012204217D
:103660000D4800F045FB1B208DF8100001208DF85F
:10367000110000208DF8120001208DF8130004A81D
:10368000FFF734FB0121044800F0BFF909B030BD59
:10369000C000160000180140002C014010B54FF486
:1036A00034714CF25030FFF787FF10BD30B589B050
:1036B00005460C4601210820FFF796FB0121022058
:1036C000FFF772FB0320ADF8200018208DF82300CF
:1036D00003208DF8220008A91A48FFF783F8681E16
:1036E00080B2ADF81800601E80B2ADF81400002062
:1036F000ADF81A00ADF8160005A9134800F040FC1B
:103700006020ADF804000120ADF806000020ADF8FF
:103710000C00ADF80A0001A90B4800F053FB01A909
:10372000094800F0A9FB0821074800F09BFB08218D
:10373000054800F0DFFB0121034800F066F909B0FD
:1037400030BD0000000C01400004004010B50C2109
:103750004FF4FA70FFF7AAFF10BD000030B589B032
:1037600005460C4601212020FFF73EFB01210420E5
:10377000FFF71AFB01210846FFF736FB012108037A
:10378000FFF7BCF84FF46040ADF8200018208DF82A
:10379000230003208DF8220008A91E48FFF722F815
:1037A000681E80B2ADF81800601E80B2ADF814003B
:1037B0000020ADF81A00ADF8160005A9164800F073
:1037C000DFFB6020ADF804000120ADF8060000200A
:1037D000ADF80C00ADF80A0001A90F4800F092FA0C
:1037E00001A90D4800F0EEFA01A90B4800F044FBD6
:1037F0000821094800F0D8FA0821074800F032FBF8
:103800000821054800F076FB0121034800F0FDF88F
:1038100009B030BD001401400008004010B53C2143
:103820004FF47A70FFF79AFF40F2F311014800F06D
:1038300075FB10BD0008004030B589B005460C4648
:1038400001210420FFF7D0FA01210820FFF7ACFA8C
:103850000220ADF8200018208DF8230003208DF8F9
:10386000220008A91648FEF7BDFF681E80B2ADF819
:103870001800601E80B2ADF814000020ADF81A00E8
:10388000ADF8160005A90F4800F07AFB6020ADF8EE
:1038900004000120ADF806000020ADF80C00ADF8E2
:1038A0000A0001A9074800F02DFA0821054800F098
:1038B0007BFA0121034800F0A8F809B030BD0000F0
:1038C00000080140000C004010B509214FF4FA70C7
:1038D000FFF7B2FF10BD000010B50121074800F04E
:1038E0009FF9012804D106480078401C044908705B
:1038F0000121024800F086F810BD000000100040D1
:103900003A00002010B51021074800F089F901287D
:1039100008D11021044800F075F804480068401CE4
:103920000249086010BD0000003401404C00002036
:1039300030B589B005460C4601211020FFF754FA36
:1039400001214803FFF750FA4FF40070ADF8200052
:1039500028208DF8230003208DF8220008A9224892
:10396000FEF740FF681E80B2ADF81800601E80B2FE
:10397000ADF814000020ADF81A00ADF8160005A946
:103980001A4800F0FDFA0C20ADF804000020ADF854
:1039900006000120ADF808000020ADF80A0005205F
:1039A000ADF80C0001A9114800F04CF910210F48A6
:1039B00000F028F8012210210C4800F099F92E207F
:1039C0008DF810000D208DF8110000208DF81200E8
:1039D00001208DF8130004A8FFF788F9012103489E
:1039E00000F013F809B030BD001001400034014070
:1039F00010B548214CF25030FFF79AFF10BDCA4372
:103A000002827047CA430282704721B1028842F0A5
:103A10000102028004E002884FF6FE731A40028021
:103A20007047000010B504466848844208D101215F
:103A3000C014FFF7E9F90021E014FFF7E5F9C4E04D
:103A4000B4F1804F08D101210846FFF7BDF90021EC
:103A50000120FFF7B9F9B8E05D48844208D101219F
:103A60000220FFF7B1F900210220FFF7ADF9ACE029
:103A70005848844208D101210420FFF7A5F900210C
:103A80000420FFF7A1F9A0E05348844208D10121A6
:103A90000820FFF799F900210820FFF795F994E035
:103AA0004E48844208D101211020FFF78DF90021F2
:103AB0001020FFF789F988E04948844208D10121A4
:103AC0002020FFF781F900212020FFF77DF97CE01D
:103AD0004448844208D101214014FFF795F90021A0
:103AE0006014FFF791F970E03F48844209D1012149
:103AF000C804FFF789F900214FF40020FFF784F98B
:103B000063E03A48844209D101210805FFF77CF9B6
:103B100000214FF48010FFF777F956E034488442D3
:103B200009D101214805FFF76FF900214FF400107A
:103B3000FFF76AF949E02F48844208D1012140206B
:103B4000FFF742F900214020FFF73EF93DE02A4807
:103B5000844208D101218020FFF736F9002180201E
:103B6000FFF732F931E02548844208D10121801560
:103B7000FFF72AF90021A015FFF726F925E02048D4
:103B8000844209D101210804FFF73EF900214FF4D6
:103B90008030FFF739F918E01A48844209D1012131
:103BA0004804FFF731F900214FF40030FFF72CF9FA
:103BB0000BE01548844208D101218804FFF724F95D
:103BC00000214FF48020FFF71FF910BD002C0140A9
:103BD0000004004000080040000C004000100040BD
:103BE0000014004000340140004C014000500140EE
:103BF0000054014000180040001C0040002000401C
:103C00000040014000440140004801400146888EC8
:103C100070470146088F70470146B1F84000704771
:103C200030B50246002000230024158A05EA01036E
:103C3000958905EA010413B10CB1012000E00020D0
:103C400030BD000070B505460C46244885420ED0B4
:103C5000234885420BD0B5F1804F08D021488542DA
:103C600005D02148854202D02048854200D100E09D
:103C700000BF208850B92389A28861882846FFF7B1
:103C8000F5FAE188284600F04EF925E0208804285E
:103C90000AD12389A28861882846FFF727FBE1889B
:103CA000284600F049F917E0208808280AD123891E
:103CB000A28861882846FFF765FBE188284600F066
:103CC00048F909E02389A28861882846FFF7A2FB0A
:103CD000E188284600F046F970BD0000002C014044
:103CE000003401400004004000080040000C004087
:103CF0001AB183890B43838102E083898B438381DB
:103D00007047000070B5002400220023058C4FF698
:103D1000EF7635400584028C8388048B48F6FF7566
:103D20002C404FF6FF452C400D884FF6FF7606EAF3
:103D300005252C434FF6DF752A400D8906EA051547
:103D40002A434D8806EA05152A43154DA84202D09C
:103D5000144DA8421DD14FF67F752A404D894FF66C
:103D6000FF7606EA05152A434FF6BF752A408D886F
:103D700006EA05152A434FF6FF352B404FF2FF7533
:103D80002B408D8906EA85052B43CD8906EA8505FA
:103D90002B4383800483CD880587028470BD000097
:103DA000002C0140003401400A460021018B4FF2F3
:103DB000FF7319404FF6FF7303EA0223194301838F
:103DC0007047000070B5002400220023058C4FF6D8
:103DD000FF6635400584028C8388848B4FF68F758F
:103DE0002C404FF6FC752C400D882C434FF6FF55A8
:103DF0002A400D894FF6FF7606EA05252A434D88AD
:103E000006EA05252A43154DA84202D0144DA842C2
:103E10001DD14FF2FF752A404D894FF6FF7606EA15
:103E200005252A434FF6FF352A408D8806EA0525E9
:103E30002A434EF6FF752B404DF6FF752B408D89BA
:103E400006EA05152B43CD8906EA05152B43838029
:103E50008483CD888587028470BD0000002C0140DA
:103E6000003401400A460021818B4FF6F773194058
:103E7000114381837047000070B5002200230024A5
:103E8000058C4EF6FF7635400584038C8488828B42
:103E900048F6FF752A404FF6FF452A400D884FF639
:103EA000FF7606EA05252A434DF6FF752B400D895E
:103EB00006EA05352B434D8806EA05352B430B4DA5
:103EC000A84202D00A4DA84208D14BF6FF752C40FB
:103ED0008D894FF6FF7606EA85152C438480828310
:103EE000CD88A0F84050038470BD0000002C014034
:103EF000003401400A460021818B4FF2FF731940C4
:103F00004FF6FF7303EA022319438183704701854B
:103F1000828270470187704781877047A0F8401000
:103F2000704781847047028B4FF6F3731A40028307
:103F3000028B0A4302837047028B4FF2FF331A4011
:103F40000283028B4FF6FF7303EA01231A430283B5
:103F50007047828B4FF6F3731A408283828B0A4339
:103F600082837047828B4FF2FF331A408283828BA9
:103F70004FF6FF7303EA01231A4382837047000060
:103F8000002202881D4B98420ED01D4B98420BD048
:103F9000B0F1804F08D01B4B984205D01A4B984285
:103FA00002D01A4B984204D14FF68F731A404B88B7
:103FB0001A43174B984207D0164B984204D04FF63D
:103FC000FF431A40CB881A4302808B8883850B8875
:103FD00003850A4B98420BD0094B984208D00E4BF0
:103FE000984205D00D4B984202D00D4B984201D11A
:103FF0000B7A03860123838270470000002C014066
:10400000003401400004004000080040000C004063
:1040100000100040001400400040014000440140F6
:104020000048014010B540F22551214800F06EF8DB
:10403000C0B1204800785A2839DA1D4800F022F92A
:10404000C1B21D480078C0EB001000EB40001B4AD5
:1040500002EB4002174803780078401C154C207092
:10406000D15424E040F22441114800F04FF8F0B15F
:104070000F4800880E48001D00880E48007810493F
:104080000D4A127888540C480078401C052801D14C
:10409000002002E008480078401C074908700948E1
:1040A0000078401C0749087000200249087010BDC4
:1040B00000380140300000202D00002014050020B1
:1040C000250000202E00002021B1828942F40052F8
:1040D000828104E082894DF6FF731A408281704725
:1040E0001AB1838A0B43838202E0838A8B438382E3
:1040F000704702460020B1F5007F00D100BF138851
:104100000B400BB1012000E00020704770B5024663
:10411000002400230025002040F66A16B14200D199
:1041200000BFC1F3421501F01F03012606FA03F395
:10413000012D02D19689334006E0022D02D1168A64
:10414000334001E0968A33400C12012606FA04F44B
:104150001688344013B10CB1012000E0002070BD7E
:10416000F0B50346002400260025002040F66A171B
:10417000B94200D100BF1846C1F3421401F01F0636
:10418000012707FA06F5012C01D10C3004E0022CBE
:1041900001D1103000E014301AB107682F430760D6
:1041A00002E00768AF430760F0BD00002DE9F0476B
:1041B00086B005460E460024A24600BFA146002751
:1041C000B08900B100BF2F462C8A4CF6FF70044026
:1041D000F08804432C82AC894EF6F3100440B0887A
:1041E00031890843718908430443AC81AC8A4FF696
:1041F000FF400440B0890443AC8201A8FEF714FEDE
:104200001F48874202D1DDF810A001E0DDF80CA0C4
:10421000A88900F4004040B10AEBCA0000EB0A1084
:1042200031684900B0FBF1F807E00AEBCA0000EB87
:104230000A1031688900B0FBF1F86420B8FBF0F097
:1042400004012009642101FB1089A88900F40040C1
:1042500040B1322000EBC900B0FBF1F000F00700E4
:10426000044308E0322000EB09106421B0FBF1F0B8
:1042700000F00F0004432C8106B0BDE8F087000079
:104280000038014001468888C0F3080070470000EC
:104290000EB500F083FA1449497A60F3C711124849
:1042A0004172407AC00960B16846FEF713FC0F48BE
:1042B0009DE80E000EC064200D4908800D4908805D
:1042C00011E0002001210346CDE90010074807C88E
:1042D000FEF726FF012806D14FF4827004490880BA
:1042E000B420044908800EBD44030020F0130020D0
:1042F000500000205200002000BFFEE7490050EAB5
:10430000C12018BF04204A0D18BF40F0010040F240
:10431000FF72B2EB515F08BF40F00200012808BFF6
:10432000052070472DE9F0414F1E00EBC701044600
:10433000D1E9000115461E4637F006020DD02A4687
:10434000334608F095F97F1E04EBC703D3E9002339
:1043500007F0E4FE37F00602F1D1022F25D0042F3A
:1043600013D0062F18BFBDE8F0812A46334608F067
:104370007FF9D4E90A2307F0D1FE2A46334608F034
:1043800077F9D4E9082307F0C9FE2A46334608F036
:104390006FF9D4E9062307F0C1FE2A46334608F038
:1043A00067F9D4E9042307F0B9FE2A46334608F03A
:1043B0005FF9D4E9022307F0B1FE2A46334608F03C
:1043C00057F9D4E90023BDE8F04107F0A7BE012268
:1043D00008F04BBF07F0A2BE024A0020110708F008
:1043E00044BF000001FDFFFF30380A2801D2012040
:1043F00070470020704700BF704700002DE9F84F5C
:1044000004460D4621F0004000917349814211DCC1
:104410007249884201DC06D12CB120462946BDE80C
:10442000F84FFFF7D4BF6E48002DCCBF6D496E49E1
:10443000BDE8F88F6D49814211DD6D498142D8BFD9
:104440004FF0FF366DDD20462946FFF757FF042861
:1044500008BFFFF7C1FF20462946BDE8F88F654930
:10446000654F25F00045814233DD6449814219DD05
:10447000002632464FF080432046294607F04EFE84
:1044800080468A4601222046294608F0EEFE002298
:104490003B4608F02DFA4246534607F0FBFE044621
:1044A0000D463EE001260022BA463B4620462946FC
:1044B00007F034FE80460F46002253462046294628
:1044C00008F016FA42463B4607F0E4FE04460D4665
:1044D00027E04B4981421BDDDFF828A1022600229C
:1044E00053462046294608F0C3F800223B4607F011
:1044F00015FE80460F46002253462046294608F006
:10450000F7F942463B4607F0C5FE04460D4608E073
:10451000032622462B4600203B4907F0BBFE0446FB
:104520000D4622462B461046194608F0A1F88B4648
:10453000824602460B4608F09BF80746024633487F
:1045400088460B4606217844FFF7ECFE52465B4650
:1045500008F08EF882462E488B463A46434605219F
:104560007844FFF7DFFE3A46434608F081F80246FA
:104570000B46002E504659460CDA07F0CFFD224676
:104580002B4608F075F801B022462B46BDE8F04FE7
:1045900008F0A2B907F0C2FD22462B4608F068F8E1
:1045A0001C4A7A4402EBC603D3E9002308F0A0F9C1
:1045B00022462B4608F09CF9174A7A4402EBC603C0
:1045C000D3E9002308F088F9009A002AB8BF81F0E7
:1045D0000041BDE8F88F0000000010440000F07FAB
:1045E000182D4454FB21F93FFB21F9BF0000DC3FAB
:1045F0000000203E0000F33F0000F03F0000E63FD7
:10460000008003400000F83F0000F0BF4E8E000025
:104610000C8E0000AA8D0000728D00002DE9F04D77
:104620009446CCF1000423F000464CEA0404524FB7
:1046300046EAD4749A46884621F00042BC4206D825
:10464000454240EA050442EAD474BC4204D9BDE8BC
:10465000F04D6246FFF7BEBEAAF14055A5F17F6559
:1046600055EA0C040BD0022404EAAA74434DDFF887
:1046700010E144EAD87452EA000B04D00CE0BDE823
:10468000F04DFFF7BBBE002C14BF012CBDE8F08D30
:10469000022C30D0032C32D056EA0C0B0AD0BE428A
:1046A00020D1BA4209D126F0804622F0804233461A
:1046B000114617E000291ADB25E0DFF8C8B0FB44FB
:1046C000002C04BFDBE90001BDE8F08D012C02BF26
:1046D000DBE9000181F00041BDE8F08D022C0AD039
:1046E000032C0CD0BA4212D1B8F1000F0BDA2348D8
:1046F0002549BDE8F08D28462449BDE8F08D2846BF
:104700007146BDE8F08D1D482149BDE8F08D921B32
:1047100012153C2AC4BF19481D490EDCBAF1000F1E
:10472000BEBF12F13C0F0020014606DB624607F0D7
:10473000B1FD21F00041FFF761FE002C08BFBDE88C
:10474000F08D012C04BF81F00041BDE8F08D114ACD
:10475000114B022C07D008F0CBF82A46BDE8F04DEB
:104760000A4B08F0C5B808F0C3F82A46BDE8F04D7A
:10477000064B08F0B1B800000000F07F182D44543B
:10478000FB2109C0068D0000FB21F9BFFB21094078
:10479000FB21F93F075C143326A6A13C01480078B1
:1047A00070470000DC00002010B50420FEF711FD6A
:1047B000104800681049B0FBF1F0104908700D482E
:1047C00000680D49B0FBF1F44FF47A7044430120C6
:1047D0000B4908804FF0E020006940F002004FF0E4
:1047E000E021086108464461006940F00100086169
:1047F00010BD00000000002040420F001400002007
:104800001600002070B5044607F098F9012810D072
:104810000B480088844206D309480088B4FBF0F5B1
:10482000284605F071FF06480088B4FBF0F100FB54
:1048300011444FF47A7104FB01F000F003F870BDED
:104840001600002070B5034600224FF0E02675697F
:104850000D4E367803FB06F44FF0E026B16910E008
:104860004FF0E026B06988420BD0884202D20E1A7F
:10487000324402E02E1A0E4432440146A24200D3D2
:1048800000E0EDE700BF70BD140000200EB56E48DB
:10489000007830B1012814D003287BD004287AD1C5
:1048A000B5E06A48006808B100200EBD6846FEF712
:1048B00011F967489DE80E000EC00120624908709A
:1048C00000BF6248006808B90020EEE7142000210C
:1048D0000B46CDE900105E4807C8FEF721FC18B969
:1048E000002059490870E0E7002006210346CDE981
:1048F0000010574807C8FEF713FC012804D1002018
:10490000514908700620D0E7002005210346CDE973
:1049100000104F4807C8FEF703FC012804D100200F
:10492000494908700520C0E7002004210346CDE96D
:104930000010474807C8FEF7F3FB012804D1002008
:10494000414908700420B0E7002003210346CDE967
:1049500000103F4807C8FEF7E3FB012804D1002000
:10496000394908700320A0E7002002210346CDE961
:104970000010374807C8FEF7D3FB68B96846FEF752
:10498000A9F833489DE80E000EC003202E49087098
:1049900000208AE71AE052E0002001210346CDE919
:1049A00000102B4807C8FEF7BBFB58B96846FEF756
:1049B00091F827489DE80E000EC003202249087098
:1049C000002072E700202049087000BF1F480068DF
:1049D00090B14FF4967000210B46CDE900101C48B1
:1049E00007C8FEF79DFB012804D100201649087076
:1049F00002205AE7002058E76846FEF76BF8144893
:104A00009DE80E000EC004200F49087018E00F4802
:104A1000006808B9002048E7002002210346CDE9DC
:104A200000100B4807C8FEF77BFB20B900200649A1
:104A30000870072039E700200349087035E700BFF8
:104A400000BF002031E700009F0000201C812242AF
:104A5000FC1300200EB56E48007830B1012814D048
:104A600003287BD004287AD1B5E06A48006808B1F1
:104A700000200EBD6846FEF72DF867489DE80E0041
:104A80000EC001206249087000BF6248006808B982
:104A90000020EEE7142000210B46CDE900105E480F
:104AA00007C8FEF73DFB18B9002059490870E0E738
:104AB000002006210346CDE90010574807C8FEF73D
:104AC0002FFB012804D10020514908700620D0E7AF
:104AD000002005210346CDE900104F4807C8FEF726
:104AE0001FFB012804D10020494908700520C0E7B8
:104AF000002004210346CDE90010474807C8FEF70F
:104B00000FFB012804D10020414908700420B0E7C0
:104B1000002003210346CDE900103F4807C8FEF7F7
:104B2000FFFA012804D10020394908700320A0E7CA
:104B3000002002210346CDE90010374807C8FEF7E0
:104B4000EFFA68B96846FDF7C5FF33489DE80E00E7
:104B50000EC003202E49087000208AE71AE052E0B8
:104B6000002001210346CDE900102B4807C8FEF7BD
:104B7000D7FA58B96846FDF7ADFF27489DE80E0003
:104B80000EC0032022490870002072E7002020494F
:104B9000087000BF1F48006890B14FF49670002164
:104BA0000B46CDE900101C4807C8FEF7B9FA0128EA
:104BB00004D100201649087002205AE7002058E767
:104BC0006846FDF787FF14489DE80E000EC00420DC
:104BD0000F49087018E00F48006808B9002048E73E
:104BE000002002210346CDE900100B4807C8FEF75C
:104BF00097FA20B9002006490870072039E70020FD
:104C00000349087035E700BF00BF002031E700000E
:104C1000A000002010812142081400202DE9F0415D
:104C200004460E462768D4F80080012512E054F8A7
:104C30002500414608F03EF902D254F8258007E0ED
:104C400054F82500394608F035FA01D254F8257099
:104C5000681CC5B2B542EADB4146384608F08EF81A
:104C600002D10448BDE8F0814146384608F054FAC4
:104C7000F8E7000000401C462DE9F04705464FF0DC
:104C80007E544FF4AA78284608F000F981464FF088
:104C9000804107F0B1FF07460F4907F0ADFF064618
:104CA0000E4908F03BF904460021204608F066F85A
:104CB00001D14FF07E540A48008808F0E7F8064614
:104CC000214608F0F7F804D20548008808F0DEF81D
:104CD00004462046BDE8F08700007A440000AA435D
:104CE000D800002000BF054A128802F04002002AC6
:104CF000F9D0C2B2014B1B1D1A8070470038014029
:104D00002DE9F05F04461D494978022202FB11415A
:104D10001A4A1278881808F0A1F8814618480168E4
:104D2000484608F0FBF80746204608F097F8834607
:104D300014480168584608F0F1F881460F4949784F
:104D4000601A08F08BF883460F480168584608F04F
:104D5000E5F88246494607F0E1FE8046394607F00D
:104D6000DDFE064608F03EF805B2044840780349E7
:104D700008704C702846BDE8F09F00009C000020A1
:104D80009800002094000020900000200148007846
:104D900070470000E70000200148007870470000DD
:104DA000E50000200148007870470000E600002080
:104DB00010B54FF44070FDF7D1FF05F00EFB05482C
:104DC0004168A820884705F087FB05F021FE0020F8
:104DD00010BD0000240200202DE9F04105460E46DA
:104DE0001C4807681C480068001D02F073FB50B99E
:104DF0001948006890F82C1001208840174909686C
:104E0000814316480160681C38B936B11248016800
:104E1000091D134804F0A4FD1AE07C190E4800682F
:104E20004460BC4207D20C480168091D0D48006867
:104E300004F07CFD0CE008480168091D0A48006880
:104E400004F074FD09480068844201D207480460F8
:104E5000BDE8F081FC000020E800002000010020F7
:104E600088170020F0000020EC000020180100202E
:104E700010B5044604F01CFE24480068401C234979
:104E800008602348006840B921480460084600686B
:104E900001280DD100F0EEF90AE01E48006838B98B
:104EA0001B480068C06AE16A884201D8184804605B
:104EB00019480068401C184908600846006860648A
:104EC00094F82C10012088401449096808431349BC
:104ED0000860E16A01EB8101114A02EB8100211DAA
:104EE00004F03EFD04F028FE0A48006868B1084856
:104EF0000068C06AE16A884207D24FF080500949D1
:104F00000860BFF34F8FBFF36F8F10BDF800002014
:104F1000E80000200401002014010020000100200E
:104F2000B814002004ED00E010B504F0C1FD1048F5
:104F30000068D0B90F4804F0E9FC0F4804F0E6FC23
:104F40000C480E4908600C480D49086000221021E9
:104F5000052006F0E9F9064908600846006820B116
:104F600008A10348006805F0FFF804F0E5FD10BD56
:104F70002C0100209C170020B017002024010020E5
:104F800028010020546D72510000000070B523E02C
:104F900005F094FD1348006808B9012000E00020E6
:104FA000054606F057FFBDB904F082FD0D48C06804
:104FB000C468201D02F08EFA0B480068401E0A49A2
:104FC00008600A480068401E0849086004F0B4FD03
:104FD000204600F060F800BF044800680028D7D1E0
:104FE00070BD000074170020F8000020F4000020BD
:104FF00070B504460D46206C70B1216CE068084421
:10500000E0606168E068884201D32068E06028467B
:10501000226CE168FBF70CFB70BD2DE9F041044602
:105020000F4615464FF00008A66B206C40B920686B
:1050300060BB606806F048FE80460020606025E0A6
:105040007DB93946226CA068FBF7F2FA216CA068A2
:105050000844A060D4E90110884217D32068A060FA
:1050600014E03946226CE068FBF7E2FA216CE06854
:10507000401AE0602168E068884203D2216C6068D1
:10508000401AE060022D01D106B1761E701CA063AB
:105090004046BDE8F08110B50446206B04F084FD65
:1050A000204604F081FD10BD0146084A12681268CE
:1050B0000AB9012200E000220A600A6822B9034A04
:1050C0001268D268106800E00020704724010020B8
:1050D00030B54FF4A043174800F007042CB1C01DB1
:1050E00020F00700134C041B1B1B0246124C2260CD
:1050F0000024114D6C60D018083820F007000F4CC8
:10510000206000240D4D2D686C600C4D2D682C60C6
:105110001146441A4C60094C24680C60084D4C68D8
:105120002C60084D4C682C604FF00044064D2C60FC
:1051300030BD000004180020440100204C01002074
:1051400054010020500100205801002000BFFFF74B
:105150001DFF064800680128F9D94FF08050044926
:105160000860BFF34F8FBFF36F8FF0E7B8140020D4
:1051700004ED00E02DE9F04106460D46174698463D
:10518000069C0DB9246000E02760E66325640121D8
:10519000204606F0E7F984F850800020A064BDE8BE
:1051A000F08100002DE9F05F82460F4690469B4655
:1051B0000A9E0C9C4FEA8801A522206BFBF77DFA22
:1051C000A8F10100216B01EB800929F0070909F022
:1051D000070008B9012000E0002028B940F22B3276
:1051E0001BA120A0FBF79CF8002507E0795D04F1E6
:1051F00034004155785D00B902E06D1C102DF5D3E7
:1052000000BF002143200155202E00D31F26E66257
:10521000E66400202065201D04F085FB04F11800E1
:1052200004F081FB2461C6F12000A06164620020CB
:10523000606584F858005A465146484600F000FC24
:1052400020600B9808B10B980460BDE8F09F000047
:105250002E2E5C4672656552544F535C7461736BBD
:10526000732E63004572726F723A25732C25640D9C
:105270000A00000010B5002407E004EB84010F4A87
:1052800002EB810004F042FB641C202CF5D30C4897
:1052900004F03CFB0B4804F039FB0B4804F036FBF0
:1052A0000A4804F033FB0A4804F030FB044809497B
:1052B000086004480849086010BD0000B8140020C8
:1052C000381700204C1700206017002074170020AA
:1052D00088170020EC000020F000002010B50146E7
:1052E000164800E0006803688B42FBD3024643681F
:1052F00013448B4204D143684C6823444360014605
:105300000A464B6813440468A34211D10C4C03684D
:105310002468A34208D04B680468646823444B6047
:1053200003681B680B6005E0054B1B680B6001E020
:1053300003680B60884200D0016010BD440100206A
:105340004C0100202DE9F04104460D4616461F464B
:105350004FF0000865602461B5420CD8F01BA169CC
:10536000884202D34FF0010811E0211D094800686E
:1053700004F0DCFA0BE0BE4204D2BD4202D34FF08F
:10538000010804E0211D0448006804F0CFFA4046FB
:10539000BDE8F081280100202401002070B50546F9
:1053A00004F086FBA86B08B9012400E0002404F097
:1053B000C3FB204670BD70B5054604F079FBA86BB1
:1053C000E96B884201D1012400E0002404F0B4FB21
:1053D000204670BD2DE9F3410D460098846C0027EE
:1053E0002CB940F6CE121AA11EA0FAF799FFA06BB5
:1053F000E16B884201D2012000E0002028B940F68C
:10540000CF1213A117A0FAF78BFFA06BE16B8842B4
:105410001BD294F945602A4669462046FFF7FDFDF8
:105420000746701C60B9606A08B9012000E00020DE
:1054300050B904F1240006F0B3FC28B1012703E0C1
:10544000701C40B284F8450000BF3846BDE8FC81BE
:105450002E2E5C4672656552544F535C71756575AE
:10546000652E63004572726F723A25732C25640DA8
:105470000A000000F8B505460F4613480068C068EA
:10548000C468201D02F026F8E069012818D1A0693F
:1054900041192B463A462046FFF754FF80B10020C1
:1054A00003462A4601460090204606F09DFD06462A
:1054B0002EB94FF4027205A10AA0FAF731FF00BF1E
:1054C0002046616A8847F8BD240100202E2E5C46E4
:1054D00072656552544F535C74696D6572732E63C7
:1054E000000000004572726F723A25732C25640D1E
:1054F0000A000000F0B587B070E0039800280CDACD
:1055000004AE2EB940F2E7223AA140A0FAF708FF14
:10551000D6E90020B168904700BF039800285DDB02
:10552000059C606908B9012000E0002010B9201D29
:1055300001F0D0FF02A800F0C7F8054603980A283A
:105540004AD2DFE800F00905072C2E4506082D2F6A
:1055500000BF00BF00BF00BF0498A26981180346C6
:105560002A462046FFF7EEFEC0B12046616A884712
:10557000E069012812D1002000900498A169421826
:1055800000231946204606F02FFD07462FB940F2AA
:10559000213218A11DA0FAF7C3FE00BF1DE000BF15
:1055A0001BE000BF0498A061A06908B1012000E0E1
:1055B000002028B94FF44E720EA114A0FAF7B0FEE5
:1055C000A06941192B462A462046FFF7BBFE04E09E
:1055D000204604F0E9FA00E000BF00BF00231A46AD
:1055E00003A90E48006805F0D9FE002885D107B050
:1055F000F0BD00002E2E5C4672656552544F535C20
:1056000074696D6572732E63000000004572726FDD
:10561000723A25732C25640D0A0000002C0100202D
:10562000F8B505460C4605F049FA684600F04CF816
:105630000646009820BB44B9B54206D806F00AFCDD
:1056400031462846FFF716FF1CE03CB10E480068C3
:10565000006808B9012000E000200446A91B22468A
:105660000A48006804F096FD06F0F4FB50B94FF0CC
:10567000805007490860BFF34F8FBFF36F8F01E081
:1056800006F0E8FBF8BD0000280100202C010020F6
:1056900004ED00E00A490968096809B9012100E040
:1056A000002121B14FF0FF31064A116006E00449A4
:1056B0000968C968C868034A4168116070470000FA
:1056C000EC0000201801002070B5044606F046FAF0
:1056D000054607480068854204D200F00BF8012017
:1056E000206001E00020206001480560284670BD70
:1056F000340100202DE9F8432DE021480068C068FE
:1057000005681F480068C068C468201D01F0E2FEFB
:105710002046616A8847E06901281CD1A0694619C2
:10572000AE4207D966602461211D1548006804F067
:10573000FDF810E0002003462A460146009020466E
:1057400006F052FC07462FB940F292320DA113A089
:10575000FAF7E6FD00BF0A480068006808B90120B2
:1057600000E000200028C8D00548D0F800800F488D
:105770000068034908600D48C0F80080BDE8F88360
:10578000240100202E2E5C4672656552544F535CF6
:1057900074696D6572732E63000000004572726F4C
:1057A000723A25732C25640D0A00000028010020A0
:1057B0000B480068401C08B9012000E0002020B917
:1057C000F42208A112A0FAF7ABFD00BF502080F32D
:1057D0001188BFF34F8FBFF36F8F00BF00BFFEE78D
:1057E000380100202E2E5C4672656552544F535C82
:1057F000706F727461626C655C525644535C4152C6
:105800004D5F434D335C706F72742E630000000077
:105810004572726F723A25732C25640D0A000000E0
:1058200008B500BF6846FFF73FFC044620460099D4
:10583000FFF7F6FEFFF75EFEF4E770B5044604F0EE
:1058400037F994F945501AE0A06C38B10021204690
:10585000FFF7C0FD88B104F0FFFF0EE0606A08B9F1
:10586000012000E0002038B904F1240006F098FA85
:1058700018B104F0F1FF00E003E0681E45B2002D0E
:10588000E2DC00BFFF2084F8450004F055F904F085
:105890000FF994F9445010E0206908B9012000E0A4
:1058A000002048B904F1100006F07AFA08B104F0BB
:1058B000D3FF681E45B200E001E0002DECDC00BF24
:1058C000FF2084F8440004F037F970BD2DE9F04161
:1058D00004464FF0000805F0F1F83E48006808B9AA
:1058E000FFF7F6FB3C480068204000285FD1A4B1D8
:1058F000083404F0070080B104F00700C0F108008C
:10590000044404F0070008B9012000E0002020B999
:10591000BF2232A13BA0FAF703FD002C47D03D483F
:105920000068844243D83C4E3046056801E02E466C
:105930002D686868A04202D228680028F7D125485F
:105940000068854233D0306800F10808286830606C
:105950006868001B102813D92F1907F0070008B931
:10596000012000E0002020B9EC221CA125A0FAF7BC
:10597000D7FC6868001B78606C603846FFF7AEFCA7
:10598000244968680968081A2249086008460068BE
:1059900022490968884203D21E4800681F490860EE
:1059A0000D4968680968084368600020286006F0AF
:1059B00051FA08F0070008B9012000E0002028B9DA
:1059C0004FF4967205A10FA0FAF7AAFC4046BDE875
:1059D000F08100004C010020580100202E2E5C4672
:1059E00072656552544F535C706F727461626C657E
:1059F0005C4D656D4D616E675C686561705F342EEE
:105A0000630000004572726F723A25732C25640D95
:105A10000A00000050010020440100205401002031
:105A20000648006830B10549096801F15000096D68
:105A3000491C01600148006870470000E800002030
:105A4000001F4FF080730360001F21F0010303600B
:105A5000001F034B036014380260203870470000B9
:105A6000B157000801460868704700002DE9F05F53
:105A700005460F464FF00008E81B0FFA80F948462C
:105A800007F0ECF9834627480168584607F046FAC4
:105A9000824607F0A7F90FFA80F8404607F0DEF9D2
:105AA000834621480168584607F038FA82461F4865
:105AB0000168504607F032F81C4908601C491B4831
:105AC000006807F0F7FA03D219481849086008E09F
:105AD00018491648006807F0EDF902D21548134935
