:020000040800F2
:10000000F8AF00207D020008450C0008F10B000845
:10001000410C00083D070008231300080000000001
:10002000000000000000000000000000E5010008E2
:1000300031090008000000002902000849100008EA
:10004000970200089702000897020008970200082C
:10005000970200089702000897020008970200081C
:10006000970200089702000897020008970200080C
:1000700097020008970200089702000897020008FC
:1000800097020008970200089702000897020008EC
:1000900097020008970200089702000897020008DC
:1000A00097020008970200089702000897020008CC
:1000B00097020008970200089702000897020008BC
:1000C00097020008970200089702000897020008AC
:1000D00097020008B910000897020008970200086C
:1000E000970200089702000897020008970200088C
:1000F000970200089702000897020008970200087C
:10010000970200089702000897020008970200086B
:10011000970200089702000897020008970200085B
:10012000970200089702000897020008970200084B
:1001300000F002F800F042F80AA090E8000C8244B7
:100140008344AAF10107DA4501D100F037F8AFF294
:10015000090EBAE80F0013F0010F18BFFB1A43F0A5
:1001600001031847B03E0000D03E0000103A24BF03
:1001700078C878C1FAD8520724BF30C830C144BF0C
:1001800004680C607047000000230024002500264E
:10019000103A28BF78C1FBD8520728BF30C148BFEA
:1001A0000B607047642900F0F580732900F002822B
:1001B000002070471FB51FBD10B510BD00F08FFAAD
:1001C0001146FFF7F7FF01F0D1F900F0ADFA03B4E3
:1001D000FFF7F2FF03BC01F0A6F8000080F30888E7
:1001E00070470000224B19680868B0E8F00F80F3F0
:1001F0000988BFF36F8F4FF0000080F311884EF035
:100200000D0E70470000000006480068006880F38B
:10021000088862B661B6BFF34F8FBFF36F8F00DF00
:1002200000BF00BF08ED00E0EFF30980BFF36F8F60
:100230000F4B1A6820E9F00F106008B54FF050001E
:1002400080F31188BFF34F8FBFF36F8F02F03AFE38
:100250004FF0000080F31188BDE808401968086875
:10026000B0E8F00F80F30988BFF36F8F704700BFCD
:1002700060000020EFF305807047000009488047C8
:1002800009480047FEE7FEE7FEE7FEE7FEE7FEE778
:10029000FEE7FEE7FEE7FEE704480549054A064B90
:1002A000704700005910000831010008F8A500202F
:1002B000F8AF0020F8A70020F8A700207047000042
:1002C0000FB4044910B503AA029800F077F910BCE6
:1002D0005DF814FB280000202DE9F0410E4604468D
:1002E000002020622046E168884730B3252805D0E9
:1002F000D4E901219047206A401CF2E7E1682046DA
:1003000000278847050018D0A5F14100192802D818
:1003100020354FF400673246294620462760FFF714
:1003200041FF40B1012804D0F61D26F0070608362B
:10033000D8E7361DD6E72846DAE7206ABDE8F0811F
:1003400070B50C460546012A05D02878800600D5F0
:10035000EA69002302E0012305E05B1C934202D21C
:10036000E05C0028F9D1A869E618C01AA861286ADB
:10037000184428622846AFF3008004E0D5E9012143
:1003800014F8010B9047B442F8D32846AFF300802D
:1003900070BD00002DE9F041064600241068752963
:1003A000314616A510D0AFF30080002802DA404293
:1003B00013A507E031688A0701D512A502E04907B5
:1003C00004D511A5012401E0AFF3008000210A2229
:1003D00006F1240709E0B0FBF2FCB0FBF2F302FBEC
:1003E0001C00303078541846491C0028F3D12346AD
:1003F0002A463046BDE8F04100F059B80000000040
:100400002D0000002B00000020000000032A40F215
:10041000308010F0030C00F0158011F8013BBCF1A6
:10042000020F624498BF11F801CB00F8013B38BFBE
:1004300011F8013BA2F1040298BF00F801CB38BFCC
:1004400000F8013B11F0030300F0CA80083AC0F045
:10045000088051F8043B083A51F804CBA0E8081092
:10046000F5E7121D5CBF51F8043B40F8043BAFF3C5
:100470000080D20724BF11F8013B11F801CB48BF1F
:1004800011F8012B24BF00F8013B00F801CB48BF55
:1004900000F8012B704702F0FF0343EA032242EA0F
:1004A000024200F0D1B870477047704770472DE99D
:1004B000F0470D4699469246044600F1240801682B
:1004C000880604D5E06921F01001216000E00120D8
:1004D000A84201DD471B00E00027A1697A1902EB61
:1004E0000900081AA0612078C00602D42046AFF3A4
:1004F0000080002608E0D4E901211AF806009047A0
:10050000206A401C761C20624E45F4DB2078C00631
:100510000AD52046AFF3008006E0D4E9012130205F
:100520009047206A401C2062381EA7F10107F4DCC6
:1005300007E0D4E9012118F805009047206A401C23
:100540002062281EA5F10105F3DC2046AFF30080F0
:100550002078000602D50220BDE8F0870120FBE7E5
:1005600001694A1C02610878704700B58FB0CDE977
:1005700001310021059105497944CDE90310114667
:100580006846FFF7A9FE0FB000BD0000E5FFFFFFC2
:1005900010B5436913B1AFF3008001E0FFF7D0FE5F
:1005A000012010BD127800F124010A7000224A7067
:1005B0000122EDE711684FF0FF32E9E7074B70B514
:1005C0000D467B44FFF7D1FF0446284600F05CF857
:1005D00010B14FF0FF3070BD204670BDF70E000027
:1005E00010B5203AC0F00B80B1E81850203AA0E8CE
:1005F0001850B1E81850A0E81850BFF4F5AF5FEA02
:10060000027C24BFB1E81850A0E8185044BF18C9B4
:1006100018C0BDE810405FEA827C24BF51F8043B5B
:1006200040F8043B08BF7047D20728BF31F8023BAF
:1006300048BF11F8012B28BF20F8023B48BF00F843
:10064000012B70474FF000020429C0F0128010F017
:10065000030C00F01F80CCF1040CBCF1020F18BF9A
:1006600000F8012BA8BF20F8022BA1EB0C0100F031
:1006700011B85FEAC17C24BF00F8012B00F8012B00
:1006800048BF00F8012B7047007B00F080007047E6
:100690004FF0000200B5134694469646203922BF1B
:1006A000A0E80C50A0E80C50B1F12001BFF4F7AF66
:1006B000090728BFA0E80C5048BF0CC05DF804EB48
:1006C000890028BF40F8042B08BF704748BF20F8B6
:1006D000022B11F0804F18BF00F8012B70477546B0
:1006E00000F028F8AE4605006946534620F00700A2
:1006F000854618B020B5FFF7CFFDBDE820404FF08C
:1007000000064FF000074FF000084FF0000B21F0FB
:100710000701AC46ACE8C009ACE8C009ACE8C009C8
:10072000ACE8C0098D4670470446AFF30080204610
:10073000FFF74DFD0048704798A5002000BFFEE779
:1007400000F0805111B10349086001E0024948609E
:1007500070470000040402400000024021B102681A
:1007600042F00102026004E002684FF6FE731A4094
:100770000260704701684FF6FE721140016000216F
:10078000016041608160C1604B49884208D14A499B
:100790000839496841F00F01474A083A51608AE038
:1007A00045491431884208D143490839496841F024
:1007B000F001414A083A51607DE03F4928318842C2
:1007C00008D13D490839496841F470613A4A083A0C
:1007D000516070E038493C31884208D136490839C7
:1007E000496841F47041344A083A516063E0324943
:1007F0005031884208D130490839496841F47021A4
:100800002D4A083A516056E02B496431884208D19C
:1008100029490839496841F47001274A083A51606A
:1008200049E025497831884208D123490839496887
:1008300041F07061204A083A51603CE01F4988420B
:1008400006D1011F096841F00F01021F116032E05B
:100850001A491431884208D11849091F096841F022
:10086000F001164A121F116025E014492831884210
:1008700008D11249091F096841F470610F4A121F1B
:10088000116018E00D493C31884208D10B49091F1D
:10089000096841F47041094A121F11600BE00749D1
:1008A0005031884207D10549091F096841F4702178
:1008B000024A121F116070470800024008040240FB
:1008C0000146486880B2704701460020002201F0CE
:1008D000805313B1054B1A6801E0054B1A6802EA10
:1008E00001030BB1012000E000207047000402402A
:1008F0000000024010B50022026847F6F0739A43E8
:100900000C6A8B6823430C6923434C6923438C692D
:100910002343CC6923434C6A23438C6A23431A4301
:100920000260CB6843600B6883604B68C36010BD96
:100930007047000030B5044604254FF4302000F025
:100940006FF80546042D17D10C48006940F00200ED
:100950000A49086108464461006940F040000861A6
:100960004FF4302000F05CF805460448006941F679
:10097000FD71084001490861284630BD0020024051
:1009800004200B49C96801F0010109B101200EE002
:100990000749C96801F0040109B1022007E00449D0
:1009A000C96801F0100109B1032000E0042070477C
:1009B000002002400348006940F0800001490861BE
:1009C000704700000020024070B504460D46042622
:1009D000F00200F025F80646042E11D109480069FE
:1009E00040F00100074908612580F00200F018F886
:1009F00006460448006941F6FE7108400149086155
:100A0000304670BD00200240024803494860034858
:100A1000486070472301674500200240AB89EFCD55
:100A200000B502460423FFF7ABFF034603E0FFF7E0
:100A3000A7FF0346521E012B01D1002AF7D102B9AC
:100A40000523184600BD2DE9F04102460025002689
:100A5000002000230024002791F803C00CF00F05AC
:100A600091F803C00CF0100CBCF1000F03D091F80A
:100A700002C04CEA050591F800C0BCF1000F31D06E
:100A8000146800202BE04FF0010C0CFA00F3B1F8D1
:100A900000C00CEA03069E4220D183004FF00F0CE9
:100AA0000CFA03F7BC4305FA03FC4CEA040491F882
:100AB00003C0BCF1280F06D14FF0010C0CFA00FC6A
:100AC000C2F814C00AE091F803C0BCF1480F05D188
:100AD0004FF0010C0CFA00FCC2F810C0401C0828B2
:100AE000D1D31460B1F800C0BCF1FF0F34DD5468FD
:100AF00000202EE000F1080C4FF0010808FA0CF37A
:100B0000B1F800C00CEA03069E4221D183004FF0E9
:100B10000F0C0CFA03F7BC4305FA03FC4CEA04047F
:100B200091F803C0BCF1280F05D100F1080C08FAB8
:100B30000CF8C2F8148091F803C0BCF1480F07D13B
:100B400000F1080C4FF0010808FA0CF8C2F8108008
:100B5000401C0828CED35460BDE8F081F0B50A46A9
:100B6000002300240021002500F00046B6F1004FCC
:100B700002D11D4EF16901E01B4E7168C0F30345BF
:100B800083B200F44016B6F5401F08D121F0706121
:100B9000154E766826F07066134F7E6012E000F402
:100BA0008016B6F5801F06D1032606FA05F4A14388
:100BB00041F0706106E0460D360103FA06F6B143D6
:100BC00041F0706122B1460D360103FA06F6314359
:100BD00000F00046B6F1004F02D1034EF16101E092
:100BE000014E7160F0BD00000000014001617047DE
:100BF00000BFFEE708B50121482000F087F820205B
:100C0000ADF8000010208DF8030003208DF80200DD
:100C100069460948FFF717FF20210748FFF7E6FF5D
:100C20002020ADF8000069460448FFF70CFF2021A2
:100C30000248FFF7DBFF08BD000C0140001801402F
:100C400000BFFEE77047000070B5002100230F22AF
:100C5000C47804B3154C246804F4E064C4F5E0647B
:100C6000210AC1F10403CA40447804FA03F18478EC
:100C70001440214309010E4C0678A155047804F074
:100C80001F050124AC4005786D11AD0005F1E0258C
:100C9000C5F8004109E0047804F01F050124AC40C8
:100CA000044D0678761145F8264070BD0CED00E045
:100CB00000E400E080E100E002490143024A1160E3
:100CC000704700000000FA050CED00E029B1064A6B
:100CD00052690243044B5A6104E0034A5269824359
:100CE000014B5A61704700000010024029B1064ACA
:100CF000D2690243044BDA6104E0034AD2698243B9
:100D0000014BDA61704700000010024029B1064A29
:100D100092690243044B9A6104E0034A9269824358
:100D2000014B9A61704700000010024030B500216D
:100D30000022002400232D4D6D6805F00C0121B127
:100D4000042905D0082923D105E0294D056022E0BA
:100D5000274D05601FE0254D6D6805F47012234D89
:100D60006D6805F48034022505EB92421CB9214DD3
:100D7000554305600BE01D4D6D6805F400351DB150
:100D80001C4D5543056002E0194D5543056002E0D6
:100D9000174D056000BF00BF144D6D6805F0F001F0
:100DA0000909154D6B5C0568DD4045600F4D6D68A8
:100DB00005F4E061090A104D6B5C4568DD40856013
:100DC0000A4D6D6805F46051C90A0B4D6B5C4568AE
:100DD000DD40C560054D6D6805F44041890B074D48
:100DE0006B5CC568B5FBF3F5056130BD00100240D2
:100DF00000127A0000093D004B0000205B0000203B
:100E000030B503460C461546002207E0184600F0B0
:100E100008F824F812009B1C501C82B2AA42F5DB91
:100E200030BD0146088870472DE9F05F80468A464C
:100E30001746B8F1006F02D33348804501D3BDE8AF
:100E4000F09FFFF7E1FDA8F1006B4FEADB25CBF344
:100E50004909C9F58064A74200DC3C464DE04FF0EB
:100E6000006101EBC5204A142849FFF7C9FF00269D
:100E70000BE009EB0600254931F810004FF6FF7131
:100E8000884200D003E0701C86B2A642F1DB00BFAE
:100E9000A6421BDA4FF0006101EBC520FFF74AFDC7
:100EA000002608E03AF8160006EB0901174A22F876
:100EB0001100701C86B2A642F4DB4FF0006101EB1A
:100EC000C5204A14114900F023F804E02246514697
:100ED000404600F01DF8A74200D10FE06D1C4FF016
:100EE00000090AEB440AA044381B87B2B7F5806FAB
:100EF00002DD4FF4806400E03C46B0E700BFFFF73E
:100F000059FD00BF9BE7000000000808F8280020FA
:100F10002DE9F04105460E461746002407E036F855
:100F200014102846FFF750FDAD1C601C84B2BC4273
:100F3000F5DBBDE8F08110B500F002F810BD00004F
:100F40000CB50020019000903348006840F48030D8
:100F50003149086000BF3048006800F4003000905C
:100F60000198401C0190009818B90198B0F5A06F45
:100F7000F1D12948006800F4003010B10120009040
:100F800001E0002000900098012843D12348006828
:100F900040F01000214908600846006820F0030076
:100FA00008600846006840F0020008601A4840687F
:100FB000194948600846406848600846406840F45F
:100FC000806048600846406820F47C10486008460D
:100FD000406840F4E81048600846006840F08070BF
:100FE000086000BF0C48006800F000700028F9D0CD
:100FF0000948406820F003000749486008464068F7
:1010000040F00200486000BF0348406800F00C0058
:101010000828F9D10CBD0000001002400020024059
:10102000042808D14FF0E021096941F004014FF094
:10103000E022116107E04FF0E021096921F004018D
:101040004FF0E0221161704710B502F03BFD01281E
:1010500001D002F0BDF910BD10B51348006840F092
:1010600001001149086008464068104908400E49CF
:101070004860084600680E4908400B490860084669
:10108000006820F4802008600846406820F4FE00D4
:1010900048604FF41F008860FFF74DFF4FF000607D
:1010A0000449086010BD0000001002400000FFF875
:1010B000FFFFF6FE08ED00E010B540F22551214893
:1010C00000F06EF8C0B1204800785A2839DA1D487F
:1010D00000F022F9C1B21D480078C0EB001000EB0F
:1010E00040001B4A02EB4002174803780078401C7E
:1010F000154C2070D15424E040F22441114800F0F6
:101100004FF8F0B10F4800880E48001D00880E48C7
:10111000007810490D4A127888540C480078401C19
:10112000052801D1002002E008480078401C07494A
:10113000087009480078401C0749087000200249DF
:10114000087010BD003801404A000020380000201F
:10115000A23B0020300000203900002021B182890C
:1011600042F40052828104E082894DF6FF731A40F6
:10117000828170471AB1838A0B43838202E0838A9B
:101180008B438382704702460020B1F5007F00D177
:1011900000BF13880B400BB1012000E00020704716
:1011A00070B50246002400230025002040F66A1690
:1011B000B14200D100BFC1F3421501F01F03012667
:1011C00006FA03F3012D02D19689334006E0022D81
:1011D00002D1168A334001E0968A33400C12012670
:1011E00006FA04F41688344013B10CB1012000E073
:1011F000002070BDF0B50346002400260025002025
:1012000040F66A17B94200D100BF1846C1F3421434
:1012100001F01F06012707FA06F5012C01D10C3059
:1012200004E0022C01D1103000E014301AB107683C
:101230002F43076002E00768AF430760F0BD00007E
:101240002DE9F04786B005460E460024A24600BFB1
:10125000A1460027B08900B100BF2F462C8A4CF66A
:10126000FF700440F08804432C82AC894EF6F310E2
:101270000440B08831890843718908430443AC8134
:10128000AC8A4FF6FF400440B0890443AC8201A809
:10129000FFF74CFD1F48874202D1DDF810A001E0A6
:1012A000DDF80CA0A88900F4004040B10AEBCA00A8
:1012B00000EB0A1031684900B0FBF1F807E00AEBD7
:1012C000CA0000EB0A1031688900B0FBF1F8642015
:1012D000B8FBF0F004012009642101FB1089A88902
:1012E00000F4004040B1322000EBC900B0FBF1F047
:1012F00000F00700044308E0322000EB09106421ED
:10130000B0FBF1F000F00F0004432C8106B0BDE803
:10131000F08700000038014001468888C0F30800CB
:10132000704700BFFEE700BF704710B502460B468E
:10133000002103E012F8014B6018C1B21800A3F1BC
:101340000104E3B2F6D10846CC1701EB1464241271
:10135000A1EB0424E1B2FF2901D1012010BD00203E
:10136000FCE7000010B50420FFF75AFE10480068A3
:101370001049B0FBF1F0104908700D4800680D49A4
:10138000B0FBF1F44FF47A70444301200B4908801C
:101390004FF0E020006940F002004FF0E0210861CA
:1013A00008464461006940F00100086110BD00007A
:1013B0001000002040420F002400002026000020E2
:1013C0002DE9F04106460F4614464FF0010800256E
:1013D00069E0705DAA2800D063E0681C305CB0282A
:1013E00003DB681C305CB42802DB4FF0010858E0D6
:1013F000E81C305C322802DD4FF0040851E0EA1CA2
:10140000B25C521DD1B27019FFF78FFF10B94FF0C7
:10141000020846E094F83D0030B9012084F83D0010
:10142000A81C305C84F83B0094F83B10A81C305C8E
:10143000814206D0681C305CB02802D04FF003080F
:101440002FE0002004F83C0F0520E0700120A07080
:101450003C3C681C305CB02804D094F83B00401C35
:1014600084F83B0004F109006060705D2070681C26
:10147000305C6070A81C305CA070E81C305CE070D0
:10148000E81C315C281D0844305C2072E81C325C8A
:10149000281D311804F10900FEF7B8FF0520BDE84A
:1014A000F081681C85B2BD4293DB94F83C00401C7F
:1014B00084F83C0084F83F804046F0E700BF054ACE
:1014C000128802F04002002AF9D0C2B2014B1B1D63
:1014D0001A8070470044004010B504462068074950
:1014E0000840B0F1005F08D16068054908602068D5
:1014F000FEF774FE02480068804710BD0000FE2F12
:10150000D40000202DE9F05F06460F4690460024E7
:10151000B3463D46A1461CE068784FEA002A287889
:1015200050441FFA80FAAD1C2046611C8CB20E4953
:1015300021F810A0B4F5806F07D100244FF4806229
:101540005846FFF771FC0BF5006B09F102001FFA1A
:1015500080F9C145E0D324B1224603495846FFF73C
:1015600063FCBDE8F09F00001C9D00201CB52148D5
:1015700000682149884202D12048FFF7ADFF4FF4AF
:101580004070FFF799FBFFF7EDFEFFF733FB01F02B
:1015900099FD01F0FFFD1A4800F01AFF002001211B
:1015A00003462822CDE9001016A1194802F05AFA84
:1015B0000020012103462822CDE9001015A11B4877
:1015C00002F050FA0020012103467822CDE90010F4
:1015D00017A11D4802F046FA002001210346782297
:1015E000CDE9001019A11E4802F03CFA01F00CFCF4
:1015F00000201CBD00500008ADDEE1FE0000010827
:10160000D8280020764C65645F5461736B0000003D
:101610006928000876557361727444617461486189
:101620006E646C655461736B000000001D3300082C
:10163000764672616D654461746148616E646C6583
:10164000725461736B00000045270008764669728A
:101650006D7761726557726974655461736B0000D0
:10166000692600082DE9F04105460E461C4807682A
:101670001C480068001D00F096FE50B9194800682B
:1016800090F82C10012088401749096881431648BA
:101690000160681C38B936B112480168091D134849
:1016A00001F01CF91AE07C190E4800684460BC4245
:1016B00007D20C480168091D0D48006801F0F4F8D4
:1016C0000CE008480168091D0A48006801F0ECF8C0
:1016D00009480068844201D207480460BDE8F081EF
:1016E000740000206000002078000020E04C002002
:1016F00068000020640000209000002010B504461F
:1017000001F0F8F824480068401C23490860234889
:10171000006840B9214804600846006801280DD1DE
:1017200000F0EEF90AE01E48006838B91B4800686E
:10173000C06AE16A884201D8184804601948006804
:10174000401C1849086008460068606494F82C1032
:101750000120884014490968084313490860E16A78
:1017600001EB8101114A02EB8100211D01F0B6F865
:1017700001F004F90A48006868B108480068C06AC6
:10178000E16A884207D24FF0805009490860BFF3F0
:101790004F8FBFF36F8F10BD7000002060000020DE
:1017A0007C0000208C00002078000020104A0020DF
:1017B00004ED00E010B501F09DF810480068D0B9C4
:1017C0000F4801F061F80F4801F05EF80C480E492F
:1017D00008600C480D49086000221021052001F026
:1017E00011FE064908600846006820B108A10348B8
:1017F000006801F0B7F901F0C1F810BDA4000020A5
:10180000F44C0020084D00209C000020A000002087
:10181000546D72510000000070B523E001F04AFBE6
:101820001348006808B9012000E00020054602F0D6
:10183000D5FABDB901F05EF80D48C068C468201D36
:1018400000F0B1FD0B480068401E0A4908600A48D4
:101850000068401E0849086001F090F8204600F03A
:1018600060F800BF044800680028D7D170BD0000B0
:10187000CC4C0020700000206C00002070B50446A5
:101880000D46206C70B1216CE0680844E06061682E
:10189000E068884201D32068E0602846226CE16855
:1018A000FEF7B4FD70BD2DE9F04104460F46154624
:1018B0004FF00008A66B206C40B9206860BB6068E0
:1018C00002F0C6F980460020606025E07DB9394607
:1018D000226CA068FEF79AFD216CA0680844A06005
:1018E000D4E90110884217D32068A06014E039467B
:1018F000226CE068FEF78AFD216CE068401AE06027
:101900002168E068884203D2216C6068401AE06078
:10191000022D01D106B1761E701CA0634046BDE8C1
:10192000F08110B50446206B01F060F8204601F00C
:101930005DF810BD0146084A126812680AB9012212
:1019400000E000220A600A6822B9034A1268D268DD
:10195000106800E0002070479C00002030B54FF474
:10196000A043174800F007042CB1C01D20F0070069
:10197000134C041B1B1B0246124C22600024114D09
:101980006C60D018083820F007000F4C206000244D
:101990000D4D2D686C600C4D2D682C601146441A5D
:1019A0004C60094C24680C60084D4C682C60084D54
:1019B0004C682C604FF00044064D2C6030BD000098
:1019C0001C4D0020B0000020B8000020C000002006
:1019D000BC000020C400002000BFFFF71DFF064828
:1019E00000680128F9D94FF0805004490860BFF31E
:1019F0004F8FBFF36F8FF0E7104A002004ED00E037
:101A00002DE9F04106460D4617469846069C0DB94D
:101A1000246000E02760E66325640121204601F090
:101A20000FFE84F850800020A064BDE8F081000023
:101A30002DE9F05F82460F4690469B460A9E0C9C1D
:101A40004FEA8801A522206BFEF725FDA8F10100D1
:101A5000216B01EB800929F0070909F0070008B99B
:101A6000012000E0002028B940F22B321BA120A069
:101A7000FEF726FC002507E0795D04F134004155AE
:101A8000785D00B902E06D1C102DF5D300BF002178
:101A900043200155202E00D31F26E662E664002075
:101AA0002065201D00F0FDFE04F1180000F0F9FE95
:101AB0002461C6F12000A06164620020606584F8A2
:101AC00058005A465146484600F000FC20600B98EA
:101AD00008B10B980460BDE8F09F00002E2E5C4614
:101AE00072656552544F535C7461736B732E63005F
:101AF0004572726F723A25732C25640D0A0000003E
:101B000010B5002407E004EB84010F4A02EB8100CA
:101B100000F0BAFE641C202CF5D30C4800F0B4FE93
:101B20000B4800F0B1FE0B4800F0AEFE0A4800F092
:101B3000ABFE0A4800F0A8FE0448094908600448C2
:101B40000849086010BD0000104A0020904C002099
:101B5000A44C0020B84C0020CC4C0020E04C0020CD
:101B6000640000206800002010B50146164800E01F
:101B7000006803688B42FBD30246436813448B42E0
:101B800004D143684C682344436001460A464B68CD
:101B900013440468A34211D10C4C03682468A34287
:101BA00008D04B680468646823444B6003681B6872
:101BB0000B6005E0054B1B680B6001E003680B60E0
:101BC000884200D0016010BDB0000020B8000020A5
:101BD0002DE9F04104460D4616461F464FF0000819
:101BE00065602461B5420CD8F01BA169884202D31C
:101BF0004FF0010811E0211D0948006800F054FE73
:101C00000BE0BE4204D2BD4202D34FF0010804E013
:101C1000211D0448006800F047FE4046BDE8F08101
:101C2000A00000209C00002070B5054600F062FE78
:101C3000A86B08B9012400E0002400F09FFE2046B4
:101C400070BD70B5054600F055FEA86BE96B884283
:101C500001D1012400E0002400F090FE204670BD78
:101C60002DE9F3410D460098846C00272CB940F60D
:101C7000CE121AA11EA0FEF723FBA06BE16B8842D7
:101C800001D2012000E0002028B940F6CF1213A1B4
:101C900017A0FEF715FBA06BE16B88421BD294F9ED
:101CA00045602A4669462046FFF7FDFD0746701C41
:101CB00060B9606A08B9012000E0002050B904F161
:101CC000240002F031F828B1012703E0701C40B273
:101CD00084F8450000BF3846BDE8FC812E2E5C46E6
:101CE00072656552544F535C71756575652E63005E
:101CF0004572726F723A25732C25640D0A0000003C
:101D0000F8B505460F4613480068C068C468201D32
:101D100000F049FBE069012818D1A06941192B4660
:101D20003A462046FFF754FF80B1002003462A467A
:101D300001460090204602F01BF906462EB94FF4EA
:101D4000027205A10AA0FEF7BBFA00BF2046616A35
:101D50008847F8BD9C0000202E2E5C4672656552B7
:101D6000544F535C74696D6572732E6300000000FC
:101D70004572726F723A25732C25640D0A000000BB
:101D8000F0B587B070E0039800280CDA04AE2EB9E5
:101D900040F2E7223AA140A0FEF792FAD6E90020ED
:101DA000B168904700BF039800285DDB059C60691F
:101DB00008B9012000E0002010B9201D00F0F3FA5E
:101DC00002A800F0C7F8054603980A284AD2DFE8BF
:101DD00000F00905072C2E4506082D2F00BF00BF77
:101DE00000BF00BF0498A269811803462A46204616
:101DF000FFF7EEFEC0B12046616A8847E06901281E
:101E000012D1002000900498A169421800231946BD
:101E1000204602F0ADF807462FB940F2213218A152
:101E20001DA0FEF74DFA00BF1DE000BF1BE000BF84
:101E30000498A061A06908B1012000E0002028B941
:101E40004FF44E720EA114A0FEF73AFAA0694119A0
:101E50002B462A462046FFF7BBFE04E0204600F052
:101E6000C5FD00E000BF00BF00231A4603A90E48CD
:101E7000006801F001FB002885D107B0F0BD00002B
:101E80002E2E5C4672656552544F535C74696D65C5
:101E900072732E63000000004572726F723A2573F0
:101EA0002C25640D0A000000A4000020F8B50546AA
:101EB0000C4600F0FFFF684600F04CF8064600981C
:101EC00020BB44B9B54206D801F088FF3146284608
:101ED000FFF716FF1CE03CB10E480068006808B927
:101EE000012000E000200446A91B22460A480068A1
:101EF00000F04EFE01F072FF50B94FF080500749DC
:101F00000860BFF34F8FBFF36F8F01E001F066FFF2
:101F1000F8BD0000A0000020A400002004ED00E0B7
:101F20000A490968096809B9012100E0002121B1C5
:101F30004FF0FF31064A116006E004490968C9689C
:101F4000C868034A416811607047000064000020BF
:101F50009000002070B5044601F0C4FD0546074816
:101F60000068854204D200F00BF80120206001E0F7
:101F70000020206001480560284670BDAC000020AC
:101F80002DE9F8432DE021480068C06805681F4826
:101F90000068C068C468201D00F005FA2046616A28
:101FA0008847E06901281CD1A0694619AE4207D9CB
:101FB00066602461211D1548006800F075FC10E082
:101FC000002003462A4601460090204601F0D0FF3B
:101FD00007462FB940F292320DA113A0FEF770F917
:101FE00000BF0A480068006808B9012000E000202E
:101FF0000028C8D00548D0F800800F480068034981
:1020000008600D48C0F80080BDE8F8839C000020FF
:102010002E2E5C4672656552544F535C74696D6533
:1020200072732E63000000004572726F723A25735E
:102030002C25640D0A000000A00000200B48006859
:10204000401C08B9012000E0002020B9F42208A1BA
:1020500012A0FEF735F900BF502080F31188BFF3BE
:102060004F8FBFF36F8F00BF00BFFEE7C800002097
:102070002E2E5C4672656552544F535C706F7274BD
:1020800061626C655C525644535C41524D5F434DF6
:10209000335C706F72742E63000000004572726FC3
:1020A000723A25732C25640D0A00000008B500BFA4
:1020B0006846FFF73FFC044620460099FFF7F6FE0E
:1020C000FFF75EFEF4E770B5044600F013FC94F9E8
:1020D00045501AE0A06C38B100212046FFF7C0FD42
:1020E00088B100F0B5FD0EE0606A08B9012000E09B
:1020F000002038B904F1240001F016FE18B100F0F8
:10210000A7FD00E003E0681E45B2002DE2DC00BF41
:10211000FF2084F8450000F031FC00F0EBFB94F95F
:10212000445010E0206908B9012000E0002048B9BF
:1021300004F1100001F0F8FD08B100F089FD681EFF
:1021400045B200E001E0002DECDC00BFFF2084F888
:10215000440000F013FC70BD2DE9F04104464FF03F
:10216000000800F0A7FE3E48006808B9FFF7F6FB3C
:102170003C480068204000285FD1A4B1083404F036
:10218000070080B104F00700C0F10800044404F027
:10219000070008B9012000E0002020B9BF2232A1C9
:1021A0003BA0FEF78DF8002C47D03D4800688442E4
:1021B00043D83C4E3046056801E02E462D686868DD
:1021C000A04202D228680028F7D12548006885423D
:1021D00033D0306800F10808286830606868001B58
:1021E000102813D92F1907F0070008B9012000E0C3
:1021F000002020B9EC221CA125A0FEF761F8686838
:10220000001B78606C603846FFF7AEFC24496868B4
:102210000968081A224908600846006822490968C6
:10222000884203D21E4800681F4908600D4968684B
:102230000968084368600020286001F0CFFD08F0BD
:10224000070008B9012000E0002028B94FF4967279
:1022500005A10FA0FEF734F84046BDE8F08100006C
:10226000B8000020C40000202E2E5C467265655226
:10227000544F535C706F727461626C655C4D656D38
:102280004D616E675C686561705F342E63000000AD
:102290004572726F723A25732C25640D0A00000096
:1022A000BC000020B0000020C000002006480068EC
:1022B00030B10549096801F15000096D491C016000
:1022C000014800687047000060000020001F4FF0C8
:1022D00080730360001F21F001030360001F034BA4
:1022E0000360143802602038704700003D20000869
:1022F00010B502460B46002103E012F8014B6018AE
:10230000C1B21800A3F10104E3B2F6D10846CC171C
:1023100001EB14642412A1EB0424E1B2C1F1FF002B
:1023200010BD70B504460E461546AA202070B02098
:1023300060700020A0700120E07004F1090060606E
:1023400096F83F00062818D2DFE800F017030609C8
:1023500011140120607210E0022060720DE0022072
:10236000E0700320607296F83B10A17205E0042033
:10237000607202E00520607200BF00BF2068286024
:10238000E27804F10901281DFEF740F8E078001D0D
:10239000C1B22846FFF7ACFF2072217AE078001D19
:1023A0002954002070BD01460A69D1E901309860C6
:1023B000D1E9010358605068884201D188685060B3
:1023C000002008611068401E10601068704700000F
:1023D000002100BF07E00A4A02EBC123021D42F8B8
:1023E00021304A1CD1B20529F5DB002202604FF4EE
:1023F0000062826100220277427782777047000094
:10240000D800002010B50446E078012819D1606892
:102410000078C02802D0C12812D10DE0002009495F
:10242000086002220848FEF7FFFCC0200749087038
:1024300000200749086003E0C1200449087000BF7C
:1024400000BF10BD00000020005000080400002064
:10245000D828002070B50446002600253F480078A3
:10246000C02802D0C12876D174E0E0783C490968E0
:102470000844B0F5006F53D939480068C0F50065CD
:10248000384800682844374908608A7F091D51F898
:102490002210334A126888182A4604F10901FDF710
:1024A000B5FF3048807F401CC0B22E498877052890
:1024B00001DB002001E02B48807F2A49887708460D
:1024C000807F08B9012008772648007F012809D1BC
:1024D00002E00A2000F082FB2248807F2149497FE8
:1024E0008842F6D0E078461B00201D49086004F1C0
:1024F000090251191B4A937F121D52F82320184BD1
:102500001B68D0183246FDF781FF1548006830443B
:10251000134908601348006830441249086018E005
:10252000E27810498B7F091D51F823100C4B1B6872
:10253000C81804F10901FDF769FFE0780849096846
:1025400008440749086007480068E17808440549DD
:10255000086000E000BF00BF70BD00000400002064
:1025600008000020D828002030B58BB005460C4666
:1025700001210846FEF7AAFB0D48FEF7FBF80D48BF
:102580000090019510200290039400200490802078
:10259000059000200690079008904FF48050099015
:1025A00000200A9069460248FEF7A4F90BB030BD3E
:1025B000440002400438014030B58BB005460C465B
:1025C00001210846FEF782FB0F48FEF7D3F80F48BB
:1025D00000900195002002900394049080200590C3
:1025E00000200690079008904FF48050099000203A
:1025F0000A9069460448FEF77DF901210248FEF77A
:10260000ADF80BB030BD00006C0002400444004047
:1026100030B58BB005460C4601210846FEF756FB47
:102620000F48FEF7A7F80F48009001951020029080
:1026300003940020049080200590002006900790CD
:1026400008904FF48050099000200A906946044891
:10265000FEF750F94FF00070FEF772F80BB030BD86
:1026600080000240044400405DE02F48007F88BBAA
:102670002AE02E480078C12823D12B4B1B682C4C14
:1026800024681A1B284B5C7F1B1D53F82410284B11
:102690001B68284C1819FEF735FF234800682449A9
:1026A0000968401A224909680844214908602248FB
:1026B0002249086002222248FEF7B6FB2046FEF7B8
:1026C0000BFF0F2000F08AFA1748407F1649897FD8
:1026D0008842CED0144A537F121D52F82310144A58
:1026E0001268144BD0184FF40062FEF70BFF10482D
:1026F000006800F500600E4908600B48407F401CF0
:10270000C0B209494877052801DB002001E00648EE
:10271000407F054948770846407F08B90020087780
:10272000052000F05BFAA0E7D82800200400002074
:102730000C00002000000108ADDEE1FE00000020DA
:102740000050000800BF78E03C480078002853D0D3
:102750003B4890F83E0000284ED13A483A49097863
:10276000445C39490978C1EB011101EB4101374A59
:1027700002EB4100324A2146FEF722FE3248007841
:10278000401C052801D1002002E02F480078401CA1
:102790002D49087029480078401E284908702848AB
:1027A0004078B02828D02A480078C0EB001000EB11
:1027B0004000284901EB400221492748FFF7B1FDBD
:1027C0002548C078401DC1B22448214A127881545E
:1027D0000020234908701E480078401C1E2801D1A3
:1027E000002002E01A480078401C194908701D4872
:1027F0000078401C1B490870114890F83E00C8B191
:102800000F484078B03805280FD2DFE800F0030405
:10281000080C0D0009E00A48FFF7F4FD05E0084840
:10282000FFF718FE01E000E000BF00BF00200449F0
:1028300081F83E00052000F0D1F985E7390000203D
:102840001CA500203000002036000020A23B002004
:102850002E000020F83000205CA50020843B0020E2
:102860002F0000202D00002009E005480068C0432B
:102870000449C1F894014FF4FA7000F0AFF9F4E79D
:10288000948121420080214200F1080141604FF013
:10289000FF31816000F10801C16001610021016028
:1028A000704700210161704710B502460B685C1C3F
:1028B0000CB9106907E002F1080000E040684468C4
:1028C00024689C42FAD944684C604C68A1608860D6
:1028D00041600A611468641C146010BD42684A605B
:1028E00093688B60936859609160086103685B1C12
:1028F0000360704710B500BF502080F31188BFF30C
:102900004F8FBFF36F8F00BF0B480068401C0A4910
:1029100008600846006801280DD108480068C0B268
:1029200008B9012000E0002028B94FF4BD7204A1CD
:102930000EA0FDF7C5FC10BDC800002004ED00E0AE
:102940002E2E5C4672656552544F535C706F7274E4
:1029500061626C655C525644535C41524D5F434D1D
:10296000335C706F72742E63000000004572726FEA
:10297000723A25732C25640D0A00000010B50B482F
:10298000006828B940F2811209A114A0FDF798FC53
:1029900006480068401E054908600846006820B9DE
:1029A000002080F3118800BF00BF10BDC8000020C8
:1029B0002E2E5C4672656552544F535C706F727474
:1029C00061626C655C525644535C41524D5F434DAD
:1029D000335C706F72742E63000000004572726F7A
:1029E000723A25732C25640D0A00000070B5064666
:1029F0003546002E35D0083D2C461A4960680968D6
:102A0000084008B1012000E0002028B94FF4A0726E
:102A100015A11FA0FDF754FC206808B9012000E0B3
:102A2000002028B940F241120FA119A0FDF748FC7F
:102A30000C4960680968084098B1206888B909495C
:102A4000606809688843606000F034FA144960687F
:102A500009680844124908602046FFF785F801F02C
:102A6000BDF970BDC40000202E2E5C467265655213
:102A7000544F535C706F727461626C655C4D656D30
:102A80004D616E675C686561705F342E63000000A5
:102A90004572726F723A25732C25640D0A0000008E
:102AA000BC000020064800684FF47A71B0FBF1F0DA
:102AB000401E4FF0E0214861072008617047000088
:102AC0001000002070B5FDF7D5FB0546102D11D381
:102AD00005F1E02090F8F04310480078844201DBD3
:102AE000012000E0002028B94FF42A720CA117A0A1
:102AF000FDF7E6FB1948006800F4E0601849096832
:102B0000884201D8012000E0002028B94FF42E723D
:102B100003A10EA0FDF7D4FB70BD0000CC00002087
:102B20002E2E5C4672656552544F535C706F727402
:102B300061626C655C525644535C41524D5F434D3B
:102B4000335C706F72742E63000000004572726F08
:102B5000723A25732C25640D0A0000000CED00E08C
:102B6000D0000020024600200BE0084B53F8303024
:102B700033B9064B43F8301003EBC0035A6002E050
:102B8000401C0828F1D300BF70470000D049002046
:102B90002DE9F04105460E4617462C46FFF7AAFEE2
:102BA00094F94400401C10B9002084F8440094F9C2
:102BB0004500401C10B9002084F84500FFF7DEFEF8
:102BC000A06B28B93A46314604F1240000F070F8B1
:102BD0002046FFF778FABDE8F081000070B50446A2
:102BE0000025ACB10F48006808B9012000E00020C2
:102BF00028B940F2CF420CA110A0FDF761FB00F014
:102C000059F900212046FEF72DFD01F0E7F80546B1
:102C10003DB94FF080500D490860BFF34F8FBFF3AF
:102C20006F8F70BD980000202E2E5C467265655235
:102C3000544F535C7461736B732E63004572726FF3
:102C4000723A25732C25640D0A00000004ED00E0A3
:102C500001200149086070478400002070B50446D7
:102C60000D462CB940F6063207A10CA0FDF728FB53
:102C70000E48016818312046FFF716FE012128464C
:102C8000FEF7F0FC70BD00002E2E5C4672656552AA
:102C9000544F535C7461736B732E63004572726F93
:102CA000723A25732C25640D0A0000006000002094
:102CB00070B505460E4614462DB940F6313209A1CD
:102CC0000DA0FDF7FDFA1048016818312846FFF7FE
:102CD00005FE0CB14FF0FF3621463046FEF7C2FC30
:102CE00070BD00002E2E5C4672656552544F535CD9
:102CF0007461736B732E63004572726F723A257341
:102D00002C25640D0A0000006000002070B5054607
:102D10002C46002D4BD02649E06A0968C96A8842D2
:102D200045D2A06900F0004028B921480068C06A77
:102D3000C0F12000A061E16A01EB81011D4A02EBB4
:102D400081016069884201D1012000E0002050B378
:102D5000201DFFF728FB78B9E06A00EB80001549D9
:102D600051F8200040B994F82C10012088401249F5
:102D700009688143104801600D480068C06AE0623C
:102D800094F82C10012088400B49096808430A492F
:102D90000860E16A01EB8101064A02EB8100211D16
:102DA000FFF79CFD03E002480068C06AE06270BD66
:102DB00060000020104A00207800002010B5044672
:102DC0002CB940F6C13205A109A0FDF779FA0C48EB
:102DD000006820600B480068606010BD2E2E5C46C5
:102DE00072656552544F535C7461736B732E63004C
:102DF0004572726F723A25732C25640D0A0000002B
:102E000088000020740000201CB51A4800210B46E1
:102E10008222CDE9001018A1194800F023FE0446D3
:102E2000012C02D101F06AF80446012C15D100BF33
:102E3000502080F31188BFF34F8FBFF36F8F00BF17
:102E40004FF0FF300F49086001200F490860002053
:102E50000E49086000F06CFA0BE0601C08B101201C
:102E600000E0002028B940F2847209A10DA0FDF70E
:102E700027FA1CBD9400002049444C450000000086
:102E8000D9190008900000207C0000207400002068
:102E90002E2E5C4672656552544F535C7461736BA1
:102EA000732E63004572726F723A25732C25640D80
:102EB0000A00000002480068401C01490860704791
:102EC0009800002010B51B48006818B101201A496D
:102ED00008602DE000201849086018480068B0FA22
:102EE00080F0C0F11F0404EB8400154951F8200064
:102EF00008B1012000E0002028B940F6F62211A117
:102F000015A0FDF7DDF904EB84010D4A02EB810009
:102F100041684968416000F1080142688A4202D173
:102F20004168496841604168C9680F4A116000BF43
:102F300010BD0000980000208400002078000020D0
:102F4000104A00202E2E5C4672656552544F535C29
:102F50007461736B732E63004572726F723A2573DE
:102F60002C25640D0A0000006000002010B586B01A
:102F70000446012144F20400FDF7C8FE4FF400703E
:102F8000ADF8140003208DF8160018208DF81700F6
:102F900005A92248FDF757FD4FF48060ADF81400F5
:102FA00004208DF8170005A91C48FDF74CFD2520CD
:102FB0008DF8000003208DF801008DF8020001203B
:102FC0008DF803006846FDF73FFE01940020ADF840
:102FD0000800ADF80A00ADF80C00ADF810000C20A8
:102FE000ADF80E0001A90E48FEF72AF9012240F2C1
:102FF00025510B48FEF7FEF8012240F22441084813
:10300000FEF7F8F8012280210548FEF7B3F8012108
:103010000348FEF7A3F806B010BD00000008014009
:103020000038014010B586B0044601212020FDF78C
:103030006DFE01214804FDF759FE01210846FDF708
:1030400065FE01210820FDF789FD2020ADF8140060
:1030500003208DF8160018208DF8170005A91748D1
:10306000FDF7F1FC4020ADF8140004208DF81700A6
:1030700005A91248FDF7E7FC01940020ADF808000F
:10308000ADF80A00ADF80C00ADF810000C20ADF85A
:103090000E0001A90A48FEF7D3F801228021084852
:1030A000FEF768F8012240210548FEF763F8012188
:1030B0000348FEF753F806B010BD000000140140AD
:1030C0000044004010B54FF4E130FFF74FFF0649D0
:1030D0000978C1EB011101EB4101044A02EB410007
:1030E0005A21FFF741FA10BD2C000020F8300020D3
:1030F00010B52248007800283ED04FF40050FDF76C
:10310000E3FB012811D14003FDF71AFB1C480078AE
:10311000401C1E2801D1002002E019480078401C04
:1031200017490870012017490870164800780128CF
:1031300022D100201349087000211348FDF70EFB2F
:103140000E480078401E0D4908700D480078C0EB0D
:10315000001000EB40000D4901EB40000A494439E2
:1031600008650B4806490978405C0749443988647A
:1031700001210548FDF7F2FA10BD00002D000020E6
:103180002C0000204800002044000240F8300020BD
:10319000843B002010B54FF4E130FFF743FF0C49AA
:1031A0000978C1EB011101EB41010A4A02EB410030
:1031B0005A21FFF72DFA08490978C1EB011101EBFB
:1031C0004101064A02EB41005A21FFF7F5F910BD13
:1031D0003A000020643D0020430000200E480020FB
:1031E00010B510214248FDF7CEFF012838D100214B
:1031F0004048FDF7B3FA4FF40010FDF7A1FA3C4840
:1032000000883B48001D00883A48FDF759FBC0F193
:103210005A003949394A1278885438480078401C95
:10322000052801D1002002E034480078401C3349D1
:10323000087033480078401C314908702F480078E6
:10324000C0EB001000EB40002E4901EB4000294983
:103250006C3988675A20086701212648FDF77EFAF5
:1032600029480078002841D04FF00070FDF72CFB72
:10327000012811D14006FDF763FA24480078401C6C
:103280001E2801D1002002E020480078401C1F4980
:10329000087001201E4908701D480078012825D1BA
:1032A00000201B490870002112481430FDF756FA1F
:1032B00015480078401E1449087014480078C0EB87
:1032C000001000EB4000134901EB40000949203198
:1032D000086011480D490978405C06496C39C1F80D
:1032E0008400012103481430FDF738FA10BD0000B6
:1032F000004400406C0002403E00002046000020D8
:10330000470000200E4800203B0000203A0000202B
:1033100049000020643D0020F047002006E0FFF750
:10332000E7FEFFF75DFF0520FFF758FCF7E7000019
:103330001CB52248014609780191FF21024611700F
:103340000146097800919DF8001001F050011C4AD7
:10335000117007211B4A116009E01A490968491ECA
:10336000184A11609DF800104906090E00919DF859
:10337000001001F080018029EFD01249096809028C
:10338000104A11601146098801F4E06111600B4A8E
:10339000019911700C48006840F470000A490860F7
:1033A0000846006840F070400860FFF77BFB002093
:1033B00006490860FCF728FF00201CBD00E400E07F
:1033C000CC000020D000002020ED00E0C80000204C
:1033D00010B500BF502080F31188BFF34F8FBFF3AB
:1033E0006F8F00BF00F084FB18B14FF0805004498C
:1033F000086000BF002080F3118800BF10BD0000EE
:1034000004ED00E02DE9F84305460E4690460DB167
:10341000012000E0002028B94FF4C4720DA112A0D1
:10342000FCF74EFF0EB9002701E005FB06F707F198
:103430005400FEF791FE044644B104F1540943469A
:103440004A46314628460094FEF7DAFA2046BDE89F
:10345000F88300002E2E5C4672656552544F535C13
:1034600071756575652E63004572726F723A2573CA
:103470002C25640D0A0000002DE9FF4782B00546A7
:103480000E461F464FF0000A2C462CB940F2DC4293
:1034900061A166A0FCF714FF0EB9206C08B90120E9
:1034A00000E0002028B940F2DD425BA15FA0FCF7FC
:1034B00007FF00F007FB08B9049808B9012000E0F5
:1034C000002028B94FF49C6253A158A0FCF7F8FEE5
:1034D00000BFFFF70FFAD4F83890B9F1000F3DD0D4
:1034E000D4F80C8031462046FEF7C8F9DFB9A9F1BF
:1034F0000100A063206810B9FEF7D8FE6060206963
:1035000008B9012000E0002010BB04F1100000F019
:103510000BFCE8B14FF0805048490860BFF34F8F73
:10352000BFF36F8F14E0C4F80C80606A08B9012003
:1035300000E0002060B904F1240000F0F5FB38B190
:103540004FF080503D490860BFF34F8FBFF36F8F3E
:10355000FFF714FA012006B0BDE8F087049818B907
:10356000FFF70CFA0020F6E7BAF1000F04D1684625
:10357000FFF724FC4FF0010AFFF700FAFFF79AFC6F
:10358000FFF7B8F994F94400401C10B9002084F802
:10359000440094F94500401C10B9002084F845000F
:1035A000FFF7ECF904A9684600F00CFA40BB20468E
:1035B000FEF73AFBF0B1206830B9FFF79BF960687D
:1035C000FFF7A4FBFFF7DAF904F124000499FFF7F1
:1035D00045FB2046FEF777FD00F000FC00287FF455
:1035E00078AF4FF0805015490860BFF34F8FBFF39D
:1035F0006F8F6EE72046FEF766FD00F0EFFB68E791
:103600002046FEF760FD00F0E9FB2046FEF70CFBCC
:103610000028EED000209EE72E2E5C467265655293
:10362000544F535C71756575652E63004572726FFA
:10363000723A25732C25640D0A00000004ED00E0A9
:1036400070B505460E462C462CB940F21B121EA141
:1036500022A0FCF735FEFFF74DF9D4E90F122068E0
:1036600001FB020060600020A0632068A060E06BA6
:10367000401E226C216800FB0210E060FF2084F8ED
:10368000440084F845009EB9206908B9012000E093
:103690000020A8B904F1100000F046FB80B14FF003
:1036A000805012490860BFF34F8FBFF36F8F07E060
:1036B00004F11000FFF7E8F804F12400FFF7E4F844
:1036C000FFF75CF9012070BD2E2E5C4672656552D5
:1036D000544F535C71756575652E63004572726F4A
:1036E000723A25732C25640D0A00000004ED00E0F9
:1036F0002DE9FF4383B0064688461D464FF000097A
:1037000034462CB940F2D92260A165A0FCF7D8FD5F
:10371000B8F1000F01D1206C08B9012000E00020B1
:1037200028B940F2DA2259A15DA0FCF7C9FD022DAB
:1037300002D1E06B012801D1012000E0002028B96E
:1037400040F2DB2251A156A0FCF7BAFD00F0BAF915
:1037500008B9059808B9012000E0002028B940F216
:10376000DE224AA14EA0FCF7ABFD00BFFFF7C2F876
:10377000A06BE16B884201D3022D38D12A46414625
:103780002046FEF790F80746A06C68B1294620460F
:10379000FEF766FA28B34FF0805045490860BFF342
:1037A0004F8FBFF36F8F1CE0606A08B9012000E003
:1037B000002068B904F1240000F0B6FA88B14FF097
:1037C00080503B490860BFF34F8FBFF36F8F08E015
:1037D0003FB14FF0805036490860BFF34F8FBFF3C1
:1037E0006F8FFFF7CBF8012007B0BDE8F083059895
:1037F00018B9FFF7C3F80020F6E7B9F1000F04D1BC
:1038000001A8FFF7DBFA4FF00109FFF7B7F8FFF760
:1038100051FBFFF76FF894F94400401C10B90020E9
:1038200084F8440094F94500401C10B9002084F845
:103830004500FFF7A3F805A901A800F0C3F8F0B907
:103840002046FEF7FEF9A0B104F110000599FFF73C
:1038500005FA2046FEF737FC00F0C0FA002885D1B3
:103860004FF0805012490860BFF34F8FBFF36F8F46
:103870007CE72046FEF727FC00F0B0FA76E720460A
:10388000FEF721FC00F0AAFA0020ADE72E2E5C46E0
:1038900072656552544F535C71756575652E630092
:1038A0004572726F723A25732C25640D0A00000070
:1038B00004ED00E02DE9F05F80468A4615461E467D
:1038C00044462CB940F29F3235A13AA0FCF7F8FCEF
:1038D000BAF1000F01D1206C08B9012000E00020EE
:1038E00028B94FF468722EA132A0FCF7E9FC022E31
:1038F00002D1E06B012801D1012000E0002028B9AD
:1039000040F2A13226A12BA0FCF7DAFCFFF7DAF88F
:1039100000BF5021EFF3118081F31188BFF34F8F67
:10392000BFF36F8F00BF0746A06BE16B884201D3E6
:10393000022E2BD194F945B0324651462046FDF770
:10394000B2FF0BF10100C8B9A06C40B1314620466E
:10395000FEF786F9B8B1B5B10120286013E0606ABE
:1039600008B9012000E0002068B904F1240000F04B
:10397000DBF940B13DB10120286004E00BF101000A
:1039800040B284F845004FF0010901E04FF0000912
:1039900000BF87F3118800BF4846BDE8F09F0000D4
:1039A0002E2E5C4672656552544F535C7175657579
:1039B000652E63004572726F723A25732C25640D73
:1039C0000A0000002DE9F04104460D462CB940F6EE
:1039D000CB3219A11DA0FCF773FC2DB940F6CC32F7
:1039E00015A11AA0FCF76CFCFEF784FF1B480768C2
:1039F0002868401C08B9002619E0194920680968A0
:103A0000884204D06068B84201D801260FE060689F
:103A1000381A2968884209D228686168791A401AD8
:103A200028602046FFF7CAF9002600E00126FEF7CD
:103A3000A5FF3046BDE8F0812E2E5C4672656552CA
:103A4000544F535C7461736B732E63004572726FD5
:103A5000723A25732C25640D0A00000074000020C2
:103A6000880000202DE9FF4F85B080468946174623
:103A7000DDE912ABB800FEF76FFB064656B15C20DD
:103A8000FEF76AFB04460CB1266304E03046FEF7FD
:103A9000ADFF00E000247CB10020CDE900ABCDE912
:103AA00002403A4649464046089BFDF7C1FF204682
:103AB000FDF724FE012501E04FF0FF35284609B04F
:103AC000BDE8F08F0549096809B9012005E00449FE
:103AD000096809B9022000E0002070477C0000203E
:103AE0009800002001490868704700007400002019
:103AF0002DE9F0414FF0000841480068002872D1DC
:103B000040480068451C3F480560EDB93E480068E4
:103B1000006808B9012000E0002028B940F6D91259
:103B20003AA13FA0FCF7CCFB374807684048006843
:103B3000354908603E4807603E480068401C3D49E2
:103B40000860FEF7EDF900BF3B48006885423CD3B2
:103B500000BF2D480068006808B9012000E000207F
:103B600020B14FF0FF30344908602DE0264800684E
:103B7000C068C4686668B54202D22F48066023E078
:103B8000201DFEF710FCA06A18B104F11800FEF722
:103B90000AFC94F82C100120884028490968084341
:103BA00026490860E16A01EB8101254A02EB8100A8
:103BB000211DFEF793FE2349E06A0968C96A88421D
:103BC000C7D34FF00108C4E700BF1E480068C06AB1
:103BD00000EB80001A4951F82000012801D94FF06C
:103BE000010805E0FFE718480068401C1649086016
:103BF0001648006808B14FF001084046BDE8F08162
:103C00009800002074000020640000202E2E5C46E6
:103C100072656552544F535C7461736B732E63000D
:103C20004572726F723A25732C25640D0A000000EC
:103C3000680000208800002090000020780000200C
:103C4000104A002060000020800000208400002036
:103C500070B505462C460026002D4BD0264800683E
:103C6000844201D1012000E0002028B940F6C7625B
:103C700022A127A0FCF724FB206D28B940F6C962D9
:103C80001EA123A0FCF71CFB206D401E2065E16CEB
:103C9000E06A88422ED0206D60BB201DFEF783FBBA
:103CA00078B9E06A00EB80001D4951F8200040B966
:103CB00094F82C10012088401A490968814319485A
:103CC0000160E06CE062E06AC0F12000A06194F85D
:103CD0002C100120884013490968084311490860E5
:103CE000E16A01EB81010E4A02EB8100211DFEF722
:103CF000F5FD0126304670BD600000202E2E5C468A
:103D000072656552544F535C7461736B732E63001C
:103D10004572726F723A25732C25640D0A000000FB
:103D2000104A00207800002070B50646F068C4688C
:103D30002CB940F661321AA11EA0FCF7C1FA04F1B9
:103D40001800FEF730FB1F480068A8B9201DFEF7D9
:103D50002AFB94F82C10012088401B49096808436D
:103D600019490860E16A01EB8101184A02EB810000
:103D7000211DFEF7B3FD04E004F118011448FEF71D
:103D8000ADFD1449E06A0968C96A884204D9012571
:103D900001201149086000E00025284670BD0000A0
:103DA0002E2E5C4672656552544F535C7461736B82
:103DB000732E63004572726F723A25732C25640D61
:103DC0000A0000009800002078000020104A00201F
:103DD000B84C0020600000208400002070B5002452
:103DE00000263448006828B94FF4FD6232A137A09C
:103DF000FCF766FAFEF77EFD2E480068401E2D494E
:103E000008600846006800284FD134480068002840
:103E10004BD024E03248C068C46804F11800FEF7B3
:103E2000C2FA201DFEF7BFFA94F82C10012088403A
:103E30002C49096808432B490860E16A01EB8101BC
:103E4000294A02EB8100211DFEF748FD2749E06A5F
:103E50000968C96A884202D30120254908602048C0
:103E6000006808B9012000E000200028D2D00CB181
:103E7000FEF756F81F48056865B100BFFFF738FE2A
:103E800010B101201A4908606D1E002DF6D10020E6
:103E9000184908601648006838B1012630071649ED
:103EA0000860BFF34F8FBFF36F8FFEF767FD30469B
:103EB00070BD0000980000202E2E5C467265655291
:103EC000544F535C7461736B732E63004572726F51
:103ED000723A25732C25640D0A0000007000002042
:103EE000B84C002078000020104A0020600000201C
:103EF000840000208000002004ED00E01CB50024B8
:103F0000FDF758FC0B48006858B10B481F210023EF
:103F10004FF48272CDE9001008A10A48FFF7A2FD14
:103F200004462CB940F2331207A10DA0FCF7C8F9E2
:103F300020461CBDA4000020A8000020546D722063
:103F400053766300AD2000082E2E5C4672656552E4
:103F5000544F535C74696D6572732E6300000000EA
:103F60004572726F723A25732C25640D0A000000A9
:103F70002DE9FF4704460D4616461F46DDF8308002
:103F80004FF000092CB94FF4D37217A11CA0FCF715
:103F900097F91F48006810B3009501960294062D0A
:103FA00015DAFFF78FFD022808D100234246694643
:103FB00017480068FFF79CFB814610E000231A4673
:103FC000694613480068FFF793FB814607E000232A
:103FD0003A4669460E480068FFF76CFC8146484641
:103FE00004B0BDE8F08700002E2E5C467265655275
:103FF000544F535C74696D6572732E63000000004A
:104000004572726F723A25732C25640D0A00000008
:10401000A40000203440000800000020D800000068
:104020006C0100080C410008D800002020AF0000FF
:1040300088010008ADDEE1FE000000000000000085
:104040000000000000A24A04000000000000000080
:104050000102030406070809000000000000000038
:104060000000000000000000000000000000000050
:10407000000000000000000000000000010100003E
:1040800000000001020304010203040607080902FC
:10409000040608000000000000000000000000000E
:1040A0000000000000000000000000000000000010
:1040B0000000000000000000000000000000000000
:1040C00000000000000000000000000000000000F0
:1040D00000000000000000000000000000000000E0
:1040E00000000000000000000000000000000000D0
:1040F000000000000000000000000000AAAAAAAA18
:0C410000000000000000000000000000B3
:040000050800027D70
:00000001FF
